:100000000C9412040C9459040C9459040C94590443
:100010000C9459040C9459040C9459040C945904EC
:100020000C9459040C9459040C945D220C941922DC
:100030000C9458230C9459040C9459040C945904AE
:100040000C9459040C9459040C9459040C945904BC
:100050000C9459040C9434230C9459040C945904B2
:100060000C9459040C9459040C9459040C9459049C
:100070000C9459040C9459040C9459040C9459048C
:100080000C9459040C9459040C9459040C9459047C
:100090000C9459040C9459040C9459040C9459046C
:1000A0000C9459040C9459040C9459040501090248
:1000B000A10185020901A1000509190129081500FE
:1000C0002501950875018102050109300931158165
:1000D000257F95027508810609381581257F9501D0
:1000E00075088106050C0A38021581257F95017572
:1000F000088106C0C005010980A101850319012AF4
:10010000B700150126B700950175108100C0050CD8
:100110000901A101850419012AA002150126A002E6
:10012000950175108100C005010906A1018505052D
:100130000719E029E71500250195087501810205D9
:1001400007190029EF1500250195F07501810205B9
:10015000081901290595057501910295017503910D
:1001600001C00660FF0961A1010962150026FF00B8
:100170009520750881020963150026FF00952075FA
:10018000089102C005010906A101050719E029E748
:1001900015002501950875018102950175088101F9
:1001A0000507190029FF150026FF0095067508812F
:1001B000000508190129059505750191029501753C
:1001C000039101C0000000000000000000000000DA
:1001D000000000000000000000000000000000001F
:1001E00000000000000000007E0F00D4FFFFFFC7EA
:1001F0000000007800000000000000002A2B28000A
:1002000000000000000000000000000000000029C5
:10021000000000002C1E3420212224342627252E05
:10022000362D3738271E1F2021222324252633333D
:10023000362E37381F0405060708090A0B0C0D0E69
:100240000F101112131415161718191A1B1C1D2F35
:100250003130232D350405060708090A0B0C0D0E55
:100260000F101112131415161718191A1B1C1D2F15
:100270003130354C00047F3F1F64321464321478EF
:100280003C1E1E140A0500010101010101010101CA
:100290000202020202020202020303030303030337
:1002A0000304040404040404050505050506060604
:1002B0000606070707070708080808090909090AC1
:1002C0000A0A0B0B0B0C0C0C0D0D0D0E0E0E0F0F66
:1002D0000F101011111112121313141415151616F4
:1002E0001717181819191A1A1B1B1C1D1D1E1E1F63
:1002F0002020212222232424252626272829292AB2
:100300002B2C2D2D2E2F30313232333435363738D9
:10031000393A3B3C3D3E3F404142434445464748D5
:10032000494A4C4D4E4F50515354555658595A5BAB
:100330005D5E5F616264656668696B6C6D6F70724B
:10034000737577787A7B7D7E8082838587888A8CB7
:100350008E8F91939596989A9C9EA0A2A3A5A7A9EB
:10036000ABADAFB1B3B5B7BABCBEC0C2C4C6C9CBE2
:10037000CDCFD1D4D6D8DBDDDFE2E4E7E9EBEEF098
:10038000F3F5F8FAFDFFFFAA7F5540222325262822
:10039000292A2C2D2F3032333536383A3B3D3E401A
:1003A00042434547494A4C4E5051535557595A5C60
:1003B0005E6062646668696B6D6F71737577797B77
:1003C0007D7F81838587898A8C8E90929496989A76
:1003D0009C9E9FA1A3A5A7A8AAACAEAFB1B3B4B68B
:1003E000B8B9BBBCBEBFC1C2C3C5C6C7C9CACBCCE6
:1003F000CDCED0D1D2D2D3D4D5D6D7D7D8D9D9DAB9
:10040000DADBDBDBDCDCDCDCDCDDDDDDDDDCDCDC2D
:10041000DCDCDBDBDBDADAD9D9D8D7D7D6D5D4D355
:10042000D2D2D1D0CECDCCCBCAC9C7C6C5C3C2C12A
:10043000BFBEBCBBB9B8B6B4B3B1AFAEACAAA8A787
:10044000A5A3A19F9E9C9A98969492908E8C8A893F
:10045000878583817F7D7B79777573716F6D6B691C
:1004600068666462605E5C5A5957555351504E4CF1
:100470004A4947454342403E3D3B3A3836353332A0
:10048000302F2D2C2A2928262523220A0008000A8D
:10049000000C000E000B0004000500060007000C15
:1004A0000009000B000D000F0010001100120013D6
:1004B000001400150016001700180019001A001B80
:1004C000001C001D000400050006000700080009CC
:1004D0000001000100010001000100010001000114
:1004E0000001000100010001000100010001000104
:1004F00000010001000100010001000100010001F4
:1005000000010001000100010001000100010001E3
:100780000001000100010001000100010009025BFD
:1007900000030100A0FA090400000103010100099F
:1007A00021110100012240000705810308000A0908
:1007B00004010002030000000921110100012222AE
:1007C000000705820320000107050303200001093B
:1007D000040200010300000009211101000122B6FA
:1007E000000705840320000A12010002000000082F
:1007F000171901000100010200010E037600390003
:1008000039007000610064000000140374006F0080
:10081000750063006800730065006E0073000000DF
:100820000403090411241FBECFEFDAE0DEBFCDBF01
:1008300004B603FE27C08091FA029091FB02A091BA
:10084000FC02B091FD028730904BA740B04BD1F431
:100850001092FA021092FB021092FC021092FD021A
:1008600014BE84B7877F84BF0FB6F894A895809193
:100870006000886180936000109260000FBEE0E02D
:10088000F8E3099511E0A0E0B1E0EEEFFBE502C06E
:1008900005900D92A23BB107D9F722E0A2EBB1E09F
:1008A00001C01D92AA3FB207E1F70E947F230C947A
:1008B000C62D0C940000E8EDF0E080818E7F8083EF
:1008C0001092E2001092DA001092E100A0EEB0E087
:1008D0008C9181608C9380818F77808319BCA7ED88
:1008E000B0E08C918E7F8C9380818F7E808310927C
:1008F000C60208952091E4003091E50095E6A90133
:100900002091EC00822F817020FF06C08091E800CA
:1009100080FF06C080E008952091E80022FD1AC003
:100920008091EB02882389F0853089F08091EB007B
:1009300085FD0FC02091E4003091E5004217530778
:10094000F9F29150E1F684E0089582E0089583E0A1
:10095000089581E00895EF92FF920F931F93CF9334
:100960007C018B010E947A04C82F811117C08091ED
:10097000E80085FD0BC08091E8008E778093E80049
:100980000E947A04882399F3C82F08C0F701819147
:100990007F018093F1000150110949F78C2FCF910D
:1009A0001F910F91FF90EF9008958091ED0287FFC6
:1009B00013C08091E80082FF06C08091E8008B7729
:1009C0008093E80004C08091EB028111F2CF08957A
:1009D0008091EB028823D9F38091E80080FFF8CF63
:1009E0008091E8008E77ECCF982F9093E900242F28
:1009F000762F50E0891731F07091EC002091ED00D6
:100A00005091F00021FD07C09F5F973071F78093F0
:100A1000E90081E008953091EB003E7F3093EB00D8
:100A20003091ED003D7F3093ED003091EB0031606F
:100A30003093EB007093EC002093ED005093F000A6
:100A40002091EE0027FDE0CF80E00895CF92DF9265
:100A5000EF92FF920F931F93CF93DF93C8EDD0E0F7
:100A600088818F7E8883E7EDF0E0808181608083DC
:100A700084E082BF81E08093C60288818E7F888374
:100A800002EE10E0F80110821092DA0081EEC82E1A
:100A9000D12CF601108288818F77888388818068C5
:100AA000888388818F7D888319BC1092EB02109215
:100AB000EC021092EA021092E90290EEE92EF12C7B
:100AC000F70180818B7F808388818160888342E009
:100AD00060E080E00E94F404F60180818E7F8083D4
:100AE000F801808181608083808188608083F70144
:100AF00080818E7F8083888180618883DF91CF9120
:100B00001F910F91FF90EF90DF90CF900895FC011F
:100B10008091F3029091F40286179707A0F0611577
:100B2000710529F49091E8009E779093E80090E099
:100B30006115710551F4911108C08091E80082FFA0
:100B400034C080E00895BC01F2CF8091EB0288238D
:100B5000C1F18530C1F18091E80083FD30C0809102
:100B6000E80082FDEACF8091E80080FFE1CF80912C
:100B7000F3002091F200382F6115710519F028302B
:100B8000310558F091E02830310509F090E02091CE
:100B9000E8002E772093E800CBCF81918093F1007D
:100BA000615071092F5F3F4FE7CF8091EB0288239F
:100BB00041F0853041F08091E80083FFBECF81E0B5
:100BC000089582E0089583E008958091C802089511
:100BD0009C014FB7F8948091BD029091BE02A09104
:100BE000BF02B091C0024FBF821B930B08952FB775
:100BF000F8948091BD029091BE02A091BF02B09185
:100C0000C0022FBF08952091BA023091BB0228176D
:100C1000390771F09093BB028093BA02E091B80259
:100C2000F091B902309721F00084F185E02D09940C
:100C300008952091B6023091B7022817390771F054
:100C40009093B7028093B602E091B802F091B90296
:100C5000309721F00680F781E02D09940895E09106
:100C6000B802F091B902309739F022E0DC012C9300
:100C70000480F581E02D09940895E091B802F09187
:100C8000B902309721F00190F081E02D099480E0C5
:100C90000895FA01811101C0FB0109940895809122
:100CA000B102982F9E7F29F4817082608093B102F7
:100CB00008958A34E8F381708864F8CFAF92BF92C8
:100CC000DF92EF92FF920F931F93CF93DF93082F42
:100CD000162FE901E42FF0E0EA57FD4F611110C033
:100CE000E4915E2F4E2F4983E8835A83DF91CF91A1
:100CF0001F910F91FF90EF90DF90BF90AF900895FC
:100D0000E62EF12C4491D42EE42FF0E026E0829FD1
:100D1000C00111242FEF30E0B9010E94322B802F47
:100D200090E0880F991F55E5569FD001579FB00D51
:100D300011248A1B9B0B982F990F890F5901AE180C
:100D4000BF08AE9ED001AF9EB00DBE9EB00D112467
:100D50005B2F189F80011124012F11275901A01A20
:100D6000B10AAE9E8001AF9E100DBE9E100D1124E3
:100D70005901A81AB108AE9CC001AF9C900DBE9C51
:100D8000900D1124892F9927281B390B2E9FC00104
:100D90002F9F900D3E9F900D1124E92F6230710519
:100DA000A1F050F46115710509F49DCF6130710512
:100DB00081F0EB2F512F97CF6430710569F080F0EF
:100DC0006630710509F48FCFF4CFE42F4B2F592FE4
:100DD0008ACFE42F412F87CFEB2F542F492F83CF7A
:100DE0004B2F5D2DE12F7FCF0E94F7059C01909145
:100DF000690280916A02982B21F030936602209359
:100E0000650290916B0280916C02982B21F03093D7
:100E100064022093630287E692E00C942F064091CF
:100E20006902803F59F480916A0287FF0DC01092D9
:100E30006A0241110BC01092610208C0813F81F427
:100E400080916A0218169CF3442381F080916B0212
:100E500090916C02892B09F05AC01092600208959B
:100E6000823F49F447FFF0CF1092690280916A02F5
:100E70008111ECCFE0CF833F19F41416ACF3E4CF2B
:100E800090916B02893F29F41916F4F610926B02C7
:100E9000DBCF8A3F19F497FFD7CFF8CF90916C0240
:100EA0008B3F29F497FFD0CF10926C02CDCF8C3FAF
:100EB00019F41916CCF3C8CF9CE0980F953090F434
:100EC000845F990B21E030E0B90102C0660F771F03
:100ED0008A95E2F7CB0180959091680289238093EF
:100EE0006802B2CF8D3F31F4809162028E7F809391
:100EF0006202AACF8E3F21F4809162028D7FF7CFEC
:100F00008F3F09F0A1CF809162028B7FF0CF0895CF
:100F10008091620280FD16C081FD16C082FD16C060
:100F2000809160028823A1F0883280F428E0829FBB
:100F3000C001112468E270E00E94462B862F672BC7
:100F400039F0089582E0089584E0089588E00895D6
:100F500081E008958091620280FD14C081FD14C07B
:100F600082FD16C080916102882381F0843180F473
:100F700022E3829FC001112464E170E00E94462BAD
:100F8000862F08958CE0089589E1089585E00895FD
:100F900082E30895803F31F40E94AA0781958093EF
:100FA0006A020895813F19F40E94AA07F8CF823F90
:100FB00031F40E94AA078195809369020895833FC6
:100FC00019F40E94AA07F8CF893F29F40E948807E4
:100FD00080936B0208958A3F21F40E9488078195CF
:100FE000F7CF8B3F31F40E948807819580936C0284
:100FF00008958C3F19F40E948807F8CF9CE0980F61
:10100000953070F4845F990B21E030E001C0220F2D
:101010008A95EAF780916802822B8093680208958E
:101020008D3F31F480916202816080936202089565
:101030008E3F21F4809162028260F7CF8F3FB9F733
:10104000809162028460F1CF80E00895F894E82FE7
:10105000E295EF70F0E031A1282F2F7081E090E051
:1010600001C0880F2A95EAF7982F9095932391A3B2
:1010700092A1892B82A3789408959091C10292FF46
:1010800006C0282F28712830F9F4877F846093FFE9
:1010900006C0282F28712831F1F4877E84612091C1
:1010A000C20220FF06C0382F38713830D9F4877F4C
:1010B000816021FF06C0282F28712831D1F4877E56
:1010C000816194FD877E0895282F24712430F9F6DC
:1010D0008B7F8860DCCF282F2471243101F78B7E31
:1010E0008861DDCF382F3171313019F78E7F8860FC
:1010F000E0CF282F2171213121F78E7E8861E1CF49
:10110000CF93DF93EC0182389105A9F1D8F58133B3
:10111000910509F496C048F58932910509F48AC011
:101120008A9709F495C0C11520E5D20708F0C2C01E
:10113000C11530E4D30708F03AC1C83ED10508F024
:101140009EC0C03ED10560F5C83AD10508F087C001
:10115000C53AD10508F00EC1C130D10509F120977B
:10116000F9F0C430D105E0F440C08533910509F4AD
:101170005AC0C997C1F68091C102837089F0C0EE50
:10118000D0E00EC0833E910599F170F4803E910548
:1011900001F1823E910539F68091C10282FD21C0A4
:1011A000CE01DF91CF910895863E910561F1873E92
:1011B000910571F1843E910509F0B5CF8091C2028D
:1011C00081FFEECF8091C102C7EED0E084FD0DC05B
:1011D000E7CF8091C10280FD31C19091C20290FFA2
:1011E000DFCFC3EED0E084FFDBCFD0E0C0E0D8CFCC
:1011F0008091C10282FD25C19091C20290FDBFCFB6
:1012000084FFCECFF2CF8091C10283FDDDCFC8CF66
:101210008091C10283FD18C19091C20291FFF0CF6D
:10122000C4EED0E0BDCF8091C10285FFB9CFC9E245
:10123000D0E0B6CF8091C10285FFB2CFC5E3D0E048
:10124000AFCF8091C10286FFABCFCAE2D0E0A8CF7A
:101250008091C10286FFA4CFC1E3D0E0A1CFCF3BF4
:10126000D10508F48FC0C03CD10508F4BECFFE0103
:10127000EE0FFF1FEC50FF4FC591D49191CFC115D8
:1012800040E2D40758F4C11581E0D80708F088CFB0
:10129000C03FD10508F4A9CFD06582CFC11590E336
:1012A000D90708F07AC0FE01FF70EE0FFF1FEC585F
:1012B000FD4FE2CFC11525E5D20758F5C11534E53C
:1012C000D30708F0A3C0C11542E5D40750F4C115F7
:1012D00081E5D80708F46EC0DC2FCC27C16FD06A37
:1012E0005FCF9C2F969596959E0123703327C1154D
:1012F000D34508F07CC0C1E0D0E002C0CC0FDD1FB8
:101300002A95E2F720E2929FC0011124C82BD92B25
:101310006CC0C11589E5D807A8F4C11598E5D907AF
:1013200008F079C0C11526E5D20708F05ECF8C2FF2
:101330000E943D08C82FD0E0DC2FCC27CC27DF71DE
:10134000D0622ECFC1153AE5D30708F469C0CE01AB
:1013500090568115904208F048CF8D2F8F710E94D2
:101360003D0890E0982F882788279F719C012C2B9F
:10137000E901E6CFC55AD0E0C75DDE4FC881D0E0B5
:10138000D0640ECFC85AD0E0CC0FDD1FC45DDE4F55
:101390000990D881C02DD46403CFCE019927D3FF03
:1013A00003C0EC01D86CFCCEEC01D06CF9CEDF7040
:1013B000D06AF6CECE01E4E096958795EA95E1F7FE
:1013C00083702C2F26952695237090E2299F9001FB
:1013D0001124382B8C2F8370C1E0D0E002C0CC0FD9
:1013E000DD1F8A95E2F7C22BD32BDC68D9CEC1E092
:1013F000D0E002C0CC0FDD1F2A95E2F730E2939FC8
:10140000C0011124C82BD92BDA68CACEDC2FCC2717
:10141000C46FD06AC5CEDC2FCC27C06FD06AC0CED7
:101420008C2F8F700E943D0834E0D695C7953A9571
:10143000E1F7CF709C2FEC01D069B2CEC9E3D0E0C8
:10144000AFCEC2EED0E0ACCEC6EED0E0A9CE809159
:101450002502811110922502089580912402909115
:101460002302892B90912202892B8093B4019091C1
:1014700025029923A1F0892B8093B4018091280142
:10148000882341F18091C10287FF24C08EE1E6EB01
:10149000F1E090E0815000F591110E94270AE0915F
:1014A000B802F091B9023097E1F0809128018823C9
:1014B00059F08091C10287FF07C08091B4018093E9
:1014C000B50185E08093B4010280F381E02D84EBC7
:1014D00091E0099486E0DBCF21912223D9F29F5F2E
:1014E000D9CF0895909128019923D1F09091C1020C
:1014F00097FF16C0E82FE695E695E695EE31E0F405
:10150000F0E0EC54FE4F282F277081E090E001C0FE
:10151000880F2A95EAF7809592818923828308951E
:10152000E6EBF1E09191891303C0DF0111971C9262
:1015300091E0EC3BF907B1F70895909128019923C8
:10154000C1F09091C10297FF14C0E82FE695E6958F
:10155000E695EE31F8F4F0E0EC54FE4F877021E0B0
:1015600030E001C0220F8A95EAF78281822B8283C4
:101570000895A6EBB1E0EFEF90E02D91821751F0C6
:10158000EF3F19F4211101C0E92F9F5F9630A9F7B1
:10159000EF3F09F408950E2E000CFF0BEC54FE4FA4
:1015A000E6CF809120029091EF01981301C0089539
:1015B0008F5F8770FACFE92FEE0FEE0F9E0F890F26
:1015C000982F977086958695869524E0829FF001E6
:1015D0001124EB52FE4F50E040E080E0219130E0DA
:1015E000092E02C0369527950A94E2F72170332719
:1015F000042E01C0220F0A94EAF7822B4F5F5F4F3F
:101600004430510559F70895E92FEE0FEE0F9E0F64
:10161000890F982F977041E001C0440F9A95EAF71F
:1016200086958695869594E0899FF0011124EB526A
:10163000FE4F30E020E070E05191DF011197CB01C7
:10164000022E02C0969587950A94E2F781708195E3
:101650008527842385278C932F5F3F4F24303105C6
:1016600059F7089590E080E00E94190690E080E02C
:101670000E94030610922302109222020E942D0A59
:1016800086E0E7E6F2E0DF011D928A95E9F7109225
:10169000610210926002109262020C94F406909320
:1016A000F6028093F5020C94320B8091F502909132
:1016B000F6029C01267033272630310519F4886024
:1016C0000C944F0B877FFCCF21E030E002C0220F4B
:1016D000331F8A95E2F7209530958091F50290911D
:1016E000F602822393230C944F0B90912102809554
:1016F000892380932102282F277039F4282F082E60
:10170000000C330B9217130621F49091C20292FF42
:1017100007C08595859585950E94640B10922102DE
:10172000089521E030E002C0220F331F8A95E2F7CE
:101730008091F5029091F602822B932B0C944F0B23
:1017400090932702809326020C94320B882341F059
:101750008095909123028923809323020C942D0A73
:101760000895882339F090912302982B90932302B7
:101770000C942D0A0895882341F0809590912402BD
:101780008923809324020C942D0A0895882339F02C
:1017900090912402982B909324020C942D0A089582
:1017A000882309F459C0823871F40E943D0681FFF4
:1017B00053C089E30E949D0A0E942D0A89E30E947A
:1017C000720A0C942D0A833859F40E943D0680FF5A
:1017D00043C083E50E949D0A0E942D0A83E5EFCF56
:1017E000843859F40E943D0682FF36C087E40E9487
:1017F0009D0A0E942D0A87E4E2CF9CEF980F913A50
:10180000F0F290E2980F983088F4877021E030E091
:10181000A90102C0440F551F8A95E2F7CA018095BD
:1018200090912402892380932402CBCF9BE5980FCB
:10183000933020F490E080E00C94190698E5980F1E
:10184000973120F490E080E00C940306803F20F074
:101850000E940F070C94F40608959C013A952115F7
:101860003F4150F5FC01EE27F170BC016627727014
:10187000AC01442754709C012227387094FF0EC09D
:1018800080E1EF2B09F480E0672B09F08062452BA3
:1018900009F08064232B89F08068089581E0EF2BA4
:1018A00009F480E0672B09F08260452B09F0846021
:1018B000232B19F08860089580E008959091EB0241
:1018C000943029F58093C3027093C5026093C402DB
:1018D0009093E9008FEF9091E800815095FD06C04C
:1018E00095ED9A95F1F700008111F5CF8091E80010
:1018F00085FF0DC050E040E063E070E083EC92E0D3
:101900000E94AB048091E8008E778093E8000895F0
:10191000BC0184E00C945E0CBC0183E00C945E0C72
:101920009C0184E08093E9009FEF8091E800915052
:1019300085FD06C085ED8A95F1F700009111F5CF80
:101940008091E80085FF0CC050E040E066E070E068
:10195000C9010E94AB048091E8008E778093E80073
:101960000895CF93DF93EC01809128018823B1F192
:101970008091C10287FF32C060E284E08093E90079
:101980008FEF9091E800815095FD06C095ED9A95F6
:10199000F1F700008111F5CF8091E80085FF1BC0B1
:1019A0008091280170E050E040E0811104C050E0D7
:1019B00040E068E070E0CE010E94AB048091E80056
:1019C0008E778093E80080E2FE01A9ECB2E00190FE
:1019D0000D928A95E1F7DF91CF91089568E081E05B
:1019E000CDCF81E08093E00080E28093D800109218
:1019F000C9008FE19EE40197F1F700C0000087E085
:101A000090EBDC018093FA029093FB02A093FC021E
:101A1000B093FD0288E19CE00FB6F894A8958093FE
:101A200060000FBE90936000FFCF8091B10280FDF7
:101A30000AC0E8E7F2E0118210821282339652E087
:101A4000E13BF507C1F73E9A38B13F7B28B12064EE
:101A50004FB7F89488E792E0FC015191CF0168E01C
:101A600028B9000000C057FF38B9550F000000C06A
:101A700000C000C038B900C06A9591F7F2E0813B20
:101A80009F0751F74FBF8FE594E00197F1F700C032
:101A900000000895EF92FF920F931F93CF93DF936F
:101AA0008C01C8E7D2E0F12CE12CF801948160911F
:101AB000B3028091B202F9E0EF16F104FCF499232D
:101AC000F9F09E014091B4020E945E062FEFE21AE7
:101AD000F20A239683E1E816F10439F70E94150D06
:101AE000F801848190E00196817099278483DF91C9
:101AF000CF911F910F91FF90EF900895992309F3D3
:101B00009E0140E0E1CF8F929F92AF92BF92CF9221
:101B1000DF92EF92FF920F931F93CF93DF93EC012D
:101B20004C81042F10E09801D8010E94912B9B0159
:101B3000AC010E94A72B4B015C01E0E2F0E0E01B4E
:101B4000F10BA5E5B0E0AC019B010E94A72B6B0156
:101B50007C019F01DF010E94892B9B01AC010E9447
:101B6000B22B9B01AC01280D391D4A1D5B1DC7011D
:101B7000B6010E945A2BF22E822F90E039E23F15D7
:101B8000D8F143E0249F9001112435952795122F19
:101B9000109598E7C92E92E0D92E00E085E5E82E51
:101BA000EF188E2D01FD8F2D9601412F6091B3020C
:101BB0000E945E060F5F53E0C50ED11C033189F70A
:101BC0000E94150D9C8181E0992319F0903219F43F
:101BD0008FEF8093270180912701890F8C83DF91FC
:101BE000CF911F910F91FF90EF90DF90CF90BF901A
:101BF000AF909F908F90089525E530E0A901481B94
:101C0000590BCA019A01220F331F280F391F37FFC2
:101C1000BCCF2F5F3F4FB9CF0F931F93CF93DF936D
:101C2000C8E7D2E0FE01118210821282339682E070
:101C3000E13BF807C1F710E000E080917602082E42
:101C4000000C990B081719078CF180912601082EBA
:101C5000000C990B801791074CF19E014091B40242
:101C60006091B3028091B2020E945E060F5F1F4F27
:101C700023960331110509F70E94150D8091250166
:101C800090917602980F9093760220912601280F6A
:101C900020932601121614F492311CF08195809342
:101CA0002501DF91CF911F910F910895198218821C
:101CB0001A82DCCFBF92CF92DF92EF92FF920F9306
:101CC0001F93CF93DF93FC018281DD24DA9480FDA2
:101CD00002C0DD24D39408E712E0D0E0C0E023E1A5
:101CE000B22EF80111821082128294E0E92EF12CBA
:101CF000C12C809175028C0D84310CF43DC06B2D8C
:101D00000E94242B892F082E000C990B8C179D07FD
:101D100091F48091B4028E9DA0018F9D500D1124ED
:101D2000559547955595479598016091B3028091D7
:101D3000B2020E945E06CD0CF1E0EF1AF108C9F67E
:101D400021960D5F1F4FC331D10559F60E94150D25
:101D50008091750291E0D91215C0811111C082E104
:101D600080937502DF91CF911F910F91FF90EF90BB
:101D7000DF90CF90BF90089587FFC5CF8D5EC3CF12
:101D80008150EECF90E00196BE010E94462BE8CF35
:101D9000EF92FF921F93CF93DF93EC0188E7E82E39
:101DA00082E0F82E10E08C8197014091B40260919E
:101DB000B302810F0E945E06135F83E0E80EF11C00
:101DC000173F89F70E94150D9A818C8190FF08C0FA
:101DD0008F5F8C83DF91CF911F91FF90EF900895DB
:101DE0008150F7CF9091B10290FF0CC0E8E7F2E08C
:101DF000818360834283339692E0E13BF907C1F728
:101E00000C94150D08950F931F93CF93DF9300D07B
:101E10000F92CDB7DEB78C018091770281110AC095
:101E20009E012F5F3F4F4FEF6FEF0E945E068A814A
:101E300080937702F8016481613069F080917702C4
:101E400040E0662361F040E0623011F44091770297
:101E500080E060E004C06091770240E080E00E9492
:101E6000F20EF801848190E0019663E070E00E9438
:101E7000462B84830F900F900F90DF91CF911F918D
:101E80000F910895CF93DF9300D00F92CDB7DEB7B7
:101E90009091B10290FF0AC09E012F5F3F4F0E94B8
:101EA0005E064B8169818A810E94F20E0F900F902D
:101EB0000F90DF91CF910895CF93DF93EC01E1EB89
:101EC000F2E0438162818C810E94420F8C818F5F9E
:101ED0008C83DF91CF910895CF93DF93EC01EC8158
:101EE000F0E0E557FC4F4491E1EBF2E06281818143
:101EF0000E94420F8C818F5F8C83DF91CF91089578
:101F0000CF93C82F882309F4AEC08238C1F40E9451
:101F10003D0681FDA8C089E30E949D0A0E942D0A0A
:101F20002FEF81EE94E0215080409040E1F700C017
:101F3000000089E30E94720ACF910C942D0A833825
:101F4000A1F40E943D0680FD8EC083E50E949D0A9B
:101F50000E942D0A2FEF81EE94E0215080409040A6
:101F6000E1F700C0000083E5E5CF8438A1F40E94CA
:101F70003D0682FD78C087E40E949D0A0E942D0ADA
:101F80002FEF81EE94E0215080409040E1F700C0B7
:101F9000000087E4CFCF8CEF8C0F813A88F58091D9
:101FA0002801882301F18091C10287FF1CC0EC2F1A
:101FB000E695E695E695F0E0EC54FE4F828190E0E0
:101FC0004C2F477021E030E002C0220F331F4A95AA
:101FD000E2F782239323892B79F08C2F0E94720AD7
:101FE0000E942D0A09C0E6EBF1E08191C817A9F320
:101FF00021E0EC3BF207C9F78C2F0E949D0A9CCF91
:1020000080E28C0F883068F4C77021E030E001C0B6
:10201000220FCA95EAF780912402822B8093240232
:102020008BCFEBE5EC0FE33040F4F0E0E75DFE4FE3
:10203000808190E0CF910C941906E8E5EC0FE73130
:1020400050F4F0E0EE0FFF1FE45DFE4F80819181C0
:10205000CF910C940306C03F30F08C2F0E94CA072A
:10206000CF910C94F406CF9108951F93CF93DF93F3
:10207000182FD0E0C0E0893311F4C0E5D0E0812F03
:102080000E94800F209731F4812FDF91CF911F9113
:102090000C94D00B8FE99FE00197F1F700C000008E
:1020A0002197F0CF0F931F93CF93DF93C62FD42F99
:1020B000022FFC0182818823A1F06093F9020E9423
:1020C000F7059093F8028093F702C77081E001C092
:1020D000880FCA95EAF7DF91CF911F910F910C9469
:1020E000C60B8091F902681335C08091F702909178
:1020F000F8020E94E805883C910560F510E21D0F8A
:10210000CD17B9F080E28C0F883040F4C77081E0C1
:1021100001C0880FCA95EAF70E94BB0B183048F43B
:1021200081E09D2F977001C0880F9A95EAF70E9471
:10213000C60B802F0E943510183098F4D77081E0BC
:1021400001C0880FDA95EAF7DF91CF911F910F91C7
:102150000C94BB0BC77081E001C0880FCA95EAF7E9
:10216000F3CFDF91CF911F910F91089598E020E870
:102170003AE03A95F1F700C05B98382F322351F0DE
:102180002A9A3AE03A95F1F700C05B9A2695915069
:1021900079F708952A98F5CF5A982AE02A95F1F709
:1021A00000C00E94B61085E38A95F1F700002A9AD4
:1021B00098E080E02AE02A95F1F700C05B982AE0D9
:1021C0002A95F1F700C05B9A23B123FB222720F95F
:1021D000880F822B915071F79AE09A95F1F700C021
:1021E0005A9A0895CF9380E00E94CC10813129F053
:1021F00090E0C0E08C2FCF91089580EA8A95F1F7A6
:1022000082E00E94CC1087FFF3CF80EA8A95F1F735
:1022100083E00E94CC10C82F80EA8A95F1F784E011
:102220000E94CC10982FE6CFCF93DF93C9E2D3E082
:1022300060E0CE010E94DA2B2196C11584E0D80718
:10224000B9F7DF91CF9108956F927F928F929F920D
:10225000AF92BF92CF92DF92EF92FF920F931F93B4
:10226000CF93DF938BE8C82E84E0D82E97E7E92E32
:10227000F12CE701C654D10936011BC0F501859048
:102280009490692DC8010E94DA2B682DC80101962F
:102290000E94DA2B82E0A80EB11C0E5F1F4FC01700
:1022A000D10761F78AE0680E711C2A96CE15DF050A
:1022B00029F08E010A5011095301E0CF7E0186E416
:1022C000E80EF11C86E4C80ED11C89E7E81683E00D
:1022D000F80679F6DF91CF911F910F91FF90EF9063
:1022E000DF90CF90BF90AF909F908F907F906F9036
:1022F0000895CF93C82F6FEF811161E283E290E0E0
:102300000E94DA2B6FEFC11161E184E290E00E943C
:10231000DA2B6FEFC11165E085E290E0CF910C946C
:10232000DA2B80E00E94791160E086E290E00E9462
:10233000DA2B0E9424110E94141181E00C9479116F
:10234000CF93C091C202C2FB992790F9981781F0F0
:1023500080FBC2F9C093C2026091C10284E090E0A8
:102360000E94DA2B6C2F82E290E0CF910C94DA2B52
:10237000CF9108950F931F93CF93DF93C42FD0E095
:10238000CC0FDD1F2AE0629FC00DD11D112436E461
:10239000839FC00DD11D1124CE0187960E94C62BAC
:1023A000082F10E0102F0027CE0188960E94C62B20
:1023B0009801282BC901DF91CF911F910F910895AA
:1023C000462F8B3038F4773028F4653018F4672FB7
:1023D0000C94BA1190E080E00895BF92CF92DF9202
:1023E000EF92FF920F931F93CF93DF937C010091A5
:1023F000F5021091F6028091260290912702082B97
:10240000192BCFE0D0E0CC24C394D12CBC2EC60134
:102410000C2E02C0880F991F0A94E2F780239123A3
:10242000892B71F4219790F7B12C8B2DDF91CF91EF
:102430001F910F91FF90EF90DF90CF90BF90089584
:10244000B7018C2F0E94E0110E948008019751F380
:10245000ECCFCF93DF93EC010E94ED11BE010E94FF
:10246000E011DF91CF910C948008FC018081918173
:102470000E942912292F2F7092959F7092509E30A2
:1024800078F4E92FF0E0E853F24D0C947C2B803F78
:1024900019F020F4883E20F481E00895843FE1F3B0
:1024A00080E00895883EC0F3813FD1F7F5CF822FB9
:1024B000869586958695089583E290E00E94C62BC6
:1024C000813289F484E290E00E94C62B813159F474
:1024D00085E290E00E94C62B91E0853009F090E003
:1024E000892F8170089580E0FCCFCF9384E090E045
:1024F0000E94C62BC82F82E290E00E94C62B982F24
:102500008C2FCF910895CF92DF92EF92FF926B01C3
:102510007C010E944F06B701A60188E090E0FF9081
:10252000EF90DF90CF900C94EC2B5F926F927F92A4
:102530008F929F92AF92BF92CF92DF92EF92FF92D3
:102540000F931F93CF93DF9300D00F92CDB7DEB7D9
:10255000182F762E042F622E9091B10290FF29C081
:10256000E92FE695AE2FB0E0A258BE4F8C91809334
:1025700073029E7F923081F59E012F5F3F4F812F26
:102580000E945E064B8169818A810E94F20E10933F
:10259000B2027092B3020093B402662051F06091CF
:1025A000B1027091B2028091B3029091B4020E9484
:1025B00083120F900F900F90DF91CF911F910F9189
:1025C000FF90EF90DF90CF90BF90AF909F908F9053
:1025D0007F906F905F900895823019F40091B4025B
:1025E000D6CF863019F41091B202D1CF8930D9F309
:1025F000893169F6E9518E2F8170582EE695F0E009
:10260000EA57FC4FA590B490BB2488E7E82E82E0FF
:10261000F82ED12CC12C93E1892E912CC601B40146
:102620000E94322B812F511013C0860F9701402F2B
:10263000672D0E945E06CA0CDB1C83E0E80EF11CCD
:1026400081EBE81682E0F80649F70E94150D9FCF4E
:10265000861BECCFE1EBF2E0438128E0421B08F45B
:1026600040E021E0628181810C949512E1EBF2E07F
:10267000438128E0420F08F44FEF21E0628181811D
:102680000C949512E1EBF2E0628128E0621B08F401
:1026900060E021E0438181810C949512E1EBF2E04E
:1026A000628128E0620F08F46FEF21E043818181AD
:1026B0000C949512E1EBF2E0818121E0438162818B
:1026C00088500C949512E1EBF2E0818121E0438186
:1026D0006281885F0C9495128091B502882319F06D
:1026E00081508093B5026091B1027091B2028091E5
:1026F000B3029091B4020C9483128091B50283309E
:1027000018F48F5F8093B5026091B1027091B202AC
:102710008091B3029091B4020C9483129091B10213
:1027200090FF3DC09170811129C092609093B102D9
:10273000662351F06091B1027091B2028091B302B0
:102740009091B4020E9483126091B102669570E08C
:102750004BE050E08AE191E00E94AC2D892BA9F07A
:102760001092740281E08093700220E04091B402E4
:102770006091B3028091B2020C949512853210F0F0
:102780009864D4CF880F982BD1CF81E080937402C6
:102790000E94F70590936E0280936D02E3CF089537
:1027A0008091B1028695815009F484E261E00C9435
:1027B0008E138091B10286958F5F853208F081E09B
:1027C00061E00C948E139091B10290FF07C0969532
:1027D000981720F0961710F40C94D91361E00C941C
:1027E0008E13E1EBF2E083E0808311828FEF82832E
:1027F0008383148260817181828193810C9483121E
:1028000069EE7EEF90E080E00E94F82B60E082E0CD
:1028100090E00E94DA2B60E083E090E00E94DA2BE7
:10282000109227021092260260E084E090E00E945D
:10283000DA2B60E082E290E00E94DA2B60E085E033
:1028400090E00E94DA2B60E086E090E00E94DA2BB4
:102850006FEF87E090E00E94DA2B40E050E0BA0191
:1028600088E090E00E94EC2B60E08DE090E00E9418
:10287000DA2B40E050E0BA0188E190E00E94EC2BB6
:1028800060E087E190E00E94DA2B40E050E0BA017E
:102890008CE190E00E94EC2B70E060E080E290E040
:1028A0000E94F82B40E050E0BA0188E190E00E94DD
:1028B000EC2B80E00E9479110E94911140E050E0E1
:1028C000BA018FE090E00E94EC2B40E050E0BA01AA
:1028D00083E190E00C94EC2B9F92AF92BF92CF9249
:1028E000DF92EF92FF920F931F93CF93DF9300D06D
:1028F00000D000D00F92CDB7DEB78E010F5F1F4F13
:1029000087E0F80111928A95E9F78AE5C82E81E0FF
:10291000D82EF12CE12CAA24A394B12CF60181919C
:102920006F018F3F09F449C0F894E82FE295EF70EA
:10293000F0E021A18F70A50102C0440F551F8A95B8
:10294000E2F7CA01922F982B91A392A18095892337
:1029500082A3789400C0E1E6F1E030E020E0912C21
:1029600041914F3F09F477C0A42FA295AF70B0E01A
:1029700090968C9190E04F7002C0959587954A95FE
:10298000E2F780FD68C08A2D022E01C0880F0A94EC
:10299000EAF7982A2F5F3F4F2530310509F7F601F6
:1029A000319780818F3F11F00E94260850EA5A9596
:1029B000F1F7F801EE0DFF1D90828FEFE81AF80A8B
:1029C000E7E0EE16F10409F0A9CF47E050E0B801C6
:1029D0008BE292E00E94B92DFF24F394009709F452
:1029E000F12C892BD1F187E0F801ABE2B2E0019044
:1029F0000D928A95E1F781E080932A020E94F70503
:102A000090932902809328028091280290912902B4
:102A10000E94E805059728F180912B0280935902C6
:102A200080912C0280935A0280912D0280935B0248
:102A300080912E0280935C0280912F0280935D0230
:102A40008091300280935E028091310280935F0218
:102A500010922A0206C080E09CCF80912A02811148
:102A6000D3CF8F2D27960FB6F894DEBF0FBECDBF04
:102A7000DF91CF911F910F91FF90EF90DF90CF905A
:102A8000BF90AF909F90089590E080E00E94D42B7B
:102A9000893E9E4F11F40C945C1280E008951092D0
:102AA000240280912801E6EBF1E0882359F080911F
:102AB000C10287FF07C08EE1DF011D928A95E9F709
:102AC0000C94320B86E0F8CF1F93CF93DF93CDB7F2
:102AD000DEB7AA970FB6F894DEBF0FBECDBF8DEE5E
:102AE00092E02091F100DC012D93CD01B2E0853F11
:102AF0009B07B9F78091EE02833009F471C0B8F4F6
:102B0000813009F448C0823009F4B2C08091E800F5
:102B100083FF3AC18091ED029091EE029A3008F065
:102B200033C1E92FF0E0EA52F24D0C947C2B8A304D
:102B300009F48DC08B3009F470C0893039F7809169
:102B4000ED02813219F78091F1029091F202009723
:102B500011F00297D9F68091E800877F8093E80012
:102B60008091E80082FF37C09091F3008091F200DD
:102B7000029729F48091F1008B7F813021F48091BC
:102B8000F1008093C8028091E8008B778093E80081
:102B90000E94D504BBCF8091ED02813A09F0B6CFF7
:102BA0008091E800877F8093E8008091F102909106
:102BB000F202892B61F460E289EC92E070E00E94FD
:102BC00087058091E8008B778093E8009FCF60E0D5
:102BD00090E080E0F3CF8091EB028111C1CF96CFDE
:102BE0008091ED02813A09F091CF8091F1029091AC
:102BF000F202892B09F08ACF8091E800877F8093C9
:102C0000E8008091E80080FFFCCF8091280180934C
:102C1000F1008091E8008E77B9CF8091ED0281328A
:102C200009F074CF8091F1029091F202892B09F0A2
:102C30006DCF8091E800877F8093E8000E94D504E3
:102C40008091EF02809328010E944F155FCF809101
:102C5000ED02813209F05ACF8091E800877F80939E
:102C6000E8000E94D5048091F0028093C7024ECF05
:102C70008091ED02813A09F049CF8091E800877F89
:102C80008093E8008091E80080FFFCCF8091C7022C
:102C9000BECF803899F0823809F076C08091F10279
:102CA0008F70873008F070C08093E9008091EB004E
:102CB00085FB882780F91092E90006C08091E9021F
:102CC0009091EA02911182609091E800977F909331
:102CD000E8008093F1001092F1008091E8008E7777
:102CE000B5C1882309F4A2C1823009F04DC080919A
:102CF000EF028111A6C18091F1028F702FEF280F92
:102D0000263008F041C08093E9002091EB0020FFBD
:102D100098C1933031F48091EB0080628093EB0096
:102D200090C19091EB0090619093EB0021E030E036
:102D300001C0220F8A95EAF72093EA001092EA0078
:102D40008091EB008860EACF81111EC01091EF02E4
:102D50001F778091E3008078812B8093E30080913E
:102D6000E800877F8093E8000E94D5048091E80006
:102D700080FFFCCF8091E30080688093E30082E0D5
:102D8000111183E08093EB028091E80083FF0AC079
:102D90008091E800877F8093E8008091EB0080625B
:102DA0008093EB00AA960FB6F894DEBF0FBECDBF9E
:102DB000DF91CF911F9108958058823028F720919C
:102DC000EF023091F0022C3DE3E03E07A1F583E0F5
:102DD0008A838AE289834FB7F894DE01139620E054
:102DE0003EE051E2E32FF0E050935700E49120FFE2
:102DF00003C0E295EF703F5FEF708E2F90E0EA30F6
:102E0000C0F0C7968D939D932F5F243159F74FBF24
:102E10008091E800877F8093E8006AE270E0CE014D
:102E200001960E9487058091E8008B778093E800E7
:102E3000ABCFC096E7CF8091F1029091F202432F81
:102E400055274330510509F44AC078F54130510502
:102E500009F47AC08BE590E0EDE8F7E042305105E7
:102E600009F092CF2091E800277F2093E80020917D
:102E7000F3023091F4028217930708F49C0140E0BA
:102E80002115310509F065C0411163C08091E8004A
:102E900082FDC9CF8091EB02882329F2853019F297
:102EA0008091E80083FFF2CFBECF4132510509F493
:102EB0003CC04232510509F067CF8330910508F0DC
:102EC00063CFFC01EE0FFF1FEA55FE4F0190F0812A
:102ED000E02D8D559E4FDC018C9190E01AC0332778
:102EE00021303105D1F02115310561F02230310555
:102EF00009F04ACFEAEFF7E0E4918E2F90E0EAEF95
:102F0000F7E007C0E0E2F8E0E4918E2F90E0E0E225
:102F1000F8E0009709F438CFA5CFEAE0F8E0E491B3
:102F20008E2F90E0EAE0F8E0F4CF8330910508F0CE
:102F30002BCF880F991FFC01E455FE4F0190F081C3
:102F4000E02D89E090E08ECF82E190E0E8EEF7E0BE
:102F500089CF8091EB02882309F465CF853009F48D
:102F600062CF8091E80083FD5ECF8091E80082FD12
:102F70008DCF8091E80080FF83CF9091F300809106
:102F8000F2002115310519F08830910550F041E02B
:102F9000089709F040E08091E8008E778093E80080
:102FA0006FCF44914093F100319621503109019641
:102FB000E8CF803809F0E8CE8091E800877F8093E1
:102FC000E8008091EC028093F10087CE8111DCCE85
:102FD0001091EF02123008F0D7CE8091E800877F81
:102FE0008093E8001093EC020E94D504112311F0A5
:102FF00084E005C08091E30087FDFACF81E08093F3
:10300000EB0242E061EC81E00E94F40442E261ECF8
:1030100084E00E94F40442E261EC82E00E94F40445
:1030200042E260EC83E00E94F404AECE8091EF02B5
:10303000813009F0A9CE81E0933009F080E08093DF
:10304000EA021092E9008091E800877F8093E8000F
:103050000E94D50499CE5F926F927F928F929F9239
:10306000AF92BF92CF92DF92EF92FF920F931F9396
:10307000CF93DF9300D000D00F92CDB7DEB76C01B5
:1030800085E0F601DE01119601900D928A95E1F737
:10309000F601228189819A81222329F10E94ED1172
:1030A000182F682F89819A810E94040B69817A8187
:1030B000812F0E94E0118C01F601F280FF2009F4BB
:1030C00070C382519F45409708F0CAC38FEF93E0C9
:1030D0000E94C62B025199E2A92E93E0B92E8823B3
:1030E00099F0F12CDCC00E94DB0A182FDFCFA1146D
:1030F000F4E0BF06B1F3C5010E94C62B811101C0E7
:1031000001502FEFA21AB20A0111F1CF1C821B82CB
:10311000662463948AE0582E85010F5F1F4FC50116
:103120000E94C62B89831A828823D9F29FEF980FB9
:103130009330F0F48A83698232E0A30EB11CC80197
:103140000E94C62B8B83882361F28E010F5F1F4F75
:10315000F8012081222301F3213009F043C091813D
:103160008281913039F40E5F1F4F0E94351008C0E4
:103170005801EBCF923039F40E5F1F4F0E94800F41
:103180000F5F1F4FE5CF933029F40E5F1F4F0E9452
:10319000D00BF6CF943019F00F5F1F4FF1CF0E5FB9
:1031A0001F4F30E020E0B8016F5F7F4FF801418191
:1031B0008053990B8A30910550F02150310900F36A
:1031C0008FE99FE00197F1F700C00000F6CF529E13
:1031D000F001539EF00D11249C012E0F3F1F842FF0
:1031E0008B01E1CFE22FF0E0EC50FE4F7490822F84
:1031F00086958695869590E0FC01EC51FE4FE49013
:103200002770F12C022E02C0F594E7940A94E2F79D
:10321000E1E0EE22FF24FC01EC52FE4FC490D12CE1
:10322000022E02C0D594C7940A94E2F7F1E0CF22AF
:10323000DD24FC01EC53FE4F8490912C02C0959448
:1032400087942A95E2F721E082229924E114F1047F
:1032500019F081EE0E94800FC114D10419F086EE9E
:103260000E94800F872D0E943510CD2819F086EE20
:103270000E94D00BEF2819F081EE0E94D00B892814
:1032800009F47ECF8CE271CF81E00E94910B0E9405
:10329000550B27CF81E00E94640B0E94550B8F2DA8
:1032A0000F900F900F900F900F90DF91CF911F9183
:1032B0000F91FF90EF90DF90CF90BF90AF909F90D5
:1032C0008F907F906F905F90089582E0E4CF033FEE
:1032D0003CE5130771F1A8F4083D9CE5190729F1B5
:1032E000093DECE51E0789F1073DFCE51F07C9F024
:1032F000F1106EC206311C4509F42BC1FF24F39472
:10330000CECF053F2CE51207E1F0B8F027E245EEFD
:1033100066EE063F8CE5180759F7C6010E94521069
:10332000E0CE26E241EE61EEF8CF27E245EE65EE13
:10333000F4CF26E241EE60EEF0CF27E245EE64EEF8
:10334000ECCF26E241EE62EEE8CF28E241E0EFCF9B
:103350000136FDE51F0709F44CC206318CE518075C
:1033600009F001C1FF2009F4F4C0809124028A7A97
:1033700091E009F490E09093D4018111E8C089E2D2
:103380000E949D0A0E942D0AACCE06308CE51807DB
:1033900009F4A2C08091C102886007301C4508F47E
:1033A0008AC08091C102806286C08091C1028D7FF7
:1033B0000C30ECE51E0709F47EC070F48091C10268
:1033C0008C600A302CE5120709F475C008F48CC033
:1033D0008091C1028E7F6FC00E308CE5180709F412
:1033E00089C08091C1028B7F0F301C4508F463C0F7
:1033F0008091C1028F7E5FC00C3FECE51E0709F48F
:103400007DC068F504312CE5120709F48FC080F403
:1034100002318CE5180709F479C08091C1028F7BD5
:1034200003311C4508F447C08091C102837F43C02B
:103430000A3FECE51E0709F445C008F049C0053114
:103440001C4509F0FDC18091C10282FB992790F9CA
:1034500021E0922790FB82F990FB83F92CC00115A3
:103460003DE5130709F458C088F48091C2028360D7
:103470000E3F9CE5190749F18091C2028D7F0F3FF5
:103480001C4518F18091C2028C7F1FC00230FDE5FF
:103490001F0709F45AC008F452C001361D4509F04F
:1034A000CFC19091C102892F8F7E94FF806103C0AC
:1034B0008091C10281608093C102C2C18091C1022A
:1034C0008460F9CF8091C20281608093C202B8C14A
:1034D0008091C2028260F9CF8091C1028061EBCFFE
:1034E0008091C1028064E7CF0E944F158091C10294
:1034F0008068E1CF8091C102877FDDCF8091C202D9
:103500008E7FE3CF8091C1028F7DD5CF0E944F1572
:103510008091C1028F77CFCF8091C202982F909572
:1035200091708E7F892B90FB81F9CFCF0E944F1530
:103530009091C102892F97FB87F98058BCCF61E039
:103540008EE090E00E94DA2B7BC160E0F9CF85E34A
:1035500017CF8091D401811104C089E20E94720AC0
:1035600011CF85E3FBCFFF2009F4C8CE8091240260
:1035700082720C3C9CE5190709F4D6C008F056C0CD
:10358000063CFCE51F0709F4BBC070F5033C3CE5B5
:10359000130709F4ABC0C0F4023CECE51E0709F4C4
:1035A00080C00A35FDE51F0709F4F7C008F0D6C052
:1035B00001153CE5130709F4E3C00E3D1C4509F075
:1035C0006ECE0E9400148DCD043CFCE51F0709F46B
:1035D00092C04AE553E163E673E1053C2CE512072E
:1035E00001F70E9449067DCD093C3CE5130709F42B
:1035F00091C070F4073CECE51E0709F486C04EE468
:1036000053E162E473E1083CFCE51F0751F3C9CFC5
:103610000A3C2CE5120709F482C04CE653E16DE741
:1036200073E10B3C3CE51307E1F2BBCF013D8CE5B8
:10363000180709F487C0B0F40E3CECE51E0709F446
:103640007BC008F476C00F3C2CE5120709F477C064
:103650006EE089E0003D3CE5130709F0A2CF0E942F
:10366000E3133FCD043D8CE5180709F471C078F4ED
:10367000023DECE51E0709F468C061E088E1033D06
:10368000FCE51F0709F08DCF0E948E132ACD053D62
:103690002CE5120709F45FC00D35100709F421CDA0
:1036A00080CF8091B10280FF1BC08E7F8093B102DA
:1036B0006091B1027091B2028091B3029091B40214
:1036C0000E948312109274028FEF90E7E2E0815023
:1036D0009040E040E1F700C000000E94150D01CDD0
:1036E00081608093B10261E08695CECF40ED53E1D9
:1036F00069ED73E176CF49ED53E160ED73E171CF90
:1037000043E653E16AE573E16CCF42E453E16EE4D2
:1037100073E167CF4AE253E166E373E162CF46E3C8
:1037200053E16AE273E15DCF4DE753E16CE673E18B
:1037300058CF61E081E0A8CF65E082E090CF68E0FB
:1037400086E08DCF64E18FE08ACF67E185E187CFA6
:1037500062E289E184CF61E083E296CF0B359DE59B
:103760001907E9F00C351D4509F099CD8091C20289
:1037700082FB882780F991E089270E94A0118FCDD4
:103780000E944F15FFEF24E33CE0F1502040304011
:10379000E1F700C000000E94F10C81E0EECF80E074
:1037A000ECCF00318FE5180709F474CD01319FE5A6
:1037B000190709F48ACD0031110509F088CDFF20E1
:1037C00009F49CCD80914F0291E0892780934F02AC
:1037D0001092F90203309DE5190708F0B9CD0A3FB0
:1037E000ECE51E0730F4C80182509C45449708F070
:1037F000B4CD0E9475129093C2028093C102003131
:103800002CE5120709F47ECE08F0F6CD08308CE5E1
:10381000180709F465CE08F0C8CD0430ECE51E07A2
:1038200009F44CCE08F0B1CD02302CE5120709F4B2
:103830003FCE8091C102826003301C4509F43BCE2B
:103840006091C1021091C20284E090E00E94DA2BE4
:10385000612F82E290E00E94DA2B0E944F1541CC4A
:103860000031EFE51E0709F40FCD0131FFE51F0719
:1038700009F0A1CF82E009CD8F929F92AF92BF92C3
:10388000CF92DF92EF92FF920F931F93CF93DF932C
:10389000CDB7DEB762970FB6F894DEBF0FBECDBFCF
:1038A0005C01FC0183819481892B31F080819181BD
:1038B00089238F3F09F08BC262960FB6F894DEBF62
:1038C0000FBECDBFDF91CF911F910F91FF90EF9071
:1038D000DF90CF90BF90AF909F908F900895F501AB
:1038E000828100811181882309F43DC0C8010E94B2
:1038F000ED11F82E682FC8010E94040BB8018F2D1E
:103900000E94E0110E9480088C01882EF501F2804F
:10391000E580E2943FE0E322809121028770A1F0EC
:10392000CF2CFF2091F0812F807F803421F080E226
:10393000800F883048F082E00E94750B8091210250
:103940008770CC24C3948111C12C912E92942FE0C6
:103950009222FBE0F91508F440C0E92DF0E0E052B6
:10396000F24D0C947C2BC8010E94DB0AF82EC6CFC6
:10397000212F2F70E22E107F19F0E29490EFE922B0
:10398000FF20C9F0EE2069F080E2800F883010F04F
:1039900081100BC080912402E82AE09224020E9448
:1039A0002D0A802F0E94800F18C080912302E82AE0
:1039B000E0922302F4CF802F0E94D00BEE2069F01A
:1039C000E094005E083010F0811038C0809124022D
:1039D000E822E09224020E942D0AE92DE850FF0B14
:1039E000349710F40E943D06CC2009F465CF8091F5
:1039F000210280FD61CFF50112828595859585951F
:103A00000E94910BC5010E943C1C8091210285956A
:103A10008595859562960FB6F894DEBF0FBECDBF33
:103A2000DF91CF911F910F91FF90EF90DF90CF909A
:103A3000BF90AF909F908F900C94640B8091230265
:103A4000E822E0922302C7CF312F3F70D32E107FA0
:103A5000103219F0D29480EFD822882071F081E0E2
:103A6000881681F1FF20D9F1EE2091F1F5018581D1
:103A700080FF97CF8F7085832BC0FF20B1F090918E
:103A80002502892F8D29E11003C00E94C60BA5CF06
:103A9000E1E0EE12FACF2091C20222FD9ECF9817EC
:103AA00009F49BCF8093250298CFE11006C00E94B5
:103AB000270A8D2D0E94BB0B90CFF1E0EF1609F481
:103AC0008CCFF5CFFF2031F025E02E1508F485CFFF
:103AD0008D2DDBCF34E03E1508F47FCFEACFEE200A
:103AE00041F3F9E38F126CC12FEF37EE83E02150E1
:103AF00030408040E1F700C0000062C1812F869510
:103B00008695837061F0813009F067CFC8019370AA
:103B1000F11002C090E080E00E9403065ECFC80171
:103B20009370F11002C090E080E00E94190655CF1A
:103B3000802FFF20B9F10E94CA07045F110B0530E6
:103B40001105B0F581E090E001C0880F0A95EAF711
:103B500026E0E5E4F2E0DE01179601900D922A9549
:103B6000E1F726E0FE013796DE011D9601900D92E9
:103B70002A95E1F72885FF20C1F0822B8E8786E009
:103B8000FE013D96DE01119601900D928A95E1F7B6
:103B900086E0FE013196A5E4B2E001900D928A958F
:103BA000E1F71BCF0E940F07C8CF80958223E6CF95
:103BB0000E94F40612CF812F837009F03FC0F110EC
:103BC0000CCF402F429546954770440F440F802FED
:103BD0008F7090E0042E02C0880F991F0A94E2F7BC
:103BE00030E020E004FF09C02FE030E002C0220FE7
:103BF000331F4A95E2F72095309516951695137068
:103C0000123099F078F44091260250912702113039
:103C100039F0822B932B842395230E94A00BDDCEB9
:103C2000842B952B822B932BF8CF822B932B2091D7
:103C300026023091270282279327EFCF8695FF2017
:103C400011F0812F8170882309F4C7CE402F42954F
:103C500046954770440F440F802F8F7090E0042EDC
:103C600002C0880F991F0A94E2F730E020E004FFB9
:103C700009C02FE030E002C0220F331F4A95E2F75F
:103C800020953095169516951370123099F078F4AA
:103C90004091F5025091F602113039F0822B932BAE
:103CA000842395230E944F0B98CE842B952B822B37
:103CB000932BF8CF822B932B2091F5023091F602B3
:103CC00082279327EFCF1F70FF2029F0812F0E94BA
:103CD000910B802FDACE802F0E94BB0B812F0E9488
:103CE000640B7BCE802F92EF891609F446C098159D
:103CF00070F0E0EF8E1629F1F1EF8F16B1F1FF2091
:103D000009F459C0E1104DCE812F8F7133C023EFDC
:103D10008216C1F134EF8312F2CFFF2009F440C0C4
:103D20001F71812F0E94910B8091C20282FD07C0FA
:103D3000E8E01E9FC0011124836080932102812F3F
:103D400019C0FF2069F084E08E1508F446CE1F717B
:103D500081E090E002C0880F991F1A95E2F7ACCF7E
:103D600095E09E1508F439CEF2CF812F8F71FF2098
:103D700009F4B5CF0E94910B30CE812F8F71FF20B7
:103D8000C9F3ADCF90E080E0FF2009F48BCF1F7125
:103D900081E090E002C0880F991F1A95E2F782CF68
:103DA00081E00E94750BF1E0FE1508F016CE82E06E
:103DB0000E94750B12CEEE2039F0893309F494CEAF
:103DC000802F0E94D00B09CE812F8F7188CFC50123
:103DD0000E942B18811183CD80912102877009F4F4
:103DE0006BCDF5018281882309F466CD82E062966D
:103DF0000FB6F894DEBF0FBECDBFDF91CF911F91FC
:103E00000F91FF90EF90DF90CF90BF90AF909F9079
:103E10008F900C94750B1F93CF93DF938091EE01DD
:103E2000807FA9F48091EB01882389F080912002A2
:103E3000D091EF016091E9017091EA01A091EC014C
:103E4000B091ED01C62FC72316E0D81304C0DF914F
:103E5000CF911F91089590E0109711F0CF3F19F482
:103E600001968770F2CF189F9001199F300D112491
:103E7000F901E051FE4F41814713F2CF40814613D3
:103E8000EFCF42814111ECCF438154814A1B5B0B40
:103E9000483C510528F78091EE018F708061809336
:103EA000EE01F901EB50FE4F80818F7080618083BD
:103EB00089EE91E00E943C1CDF91CF911F910C9400
:103EC000D10AAF92BF92CF92DF92EF92FF920F93FF
:103ED0001F93CF93DF93CDB7DEB761970FB6F894FA
:103EE000DEBF0FBECDBF8C0185E0F801DE011D965F
:103EF00001900D928A95E1F7F801E28089EEA82EF3
:103F000081E0B82E6091EC017091ED0161157105B1
:103F100009F432C19091E9014091EA01892F84238B
:103F20008F3F09F429C120813181C380D480F09072
:103F3000EB01F601E61BF70BFF2009F4E8C08091C6
:103F4000EE01582F507FE83CF10508F0ABC051114D
:103F500077C0FE2C431321C092131FC0E1101DC077
:103F60008F7080618093EE01C5010E943C1C80919E
:103F7000EE01F80185838F2D61960FB6F894DEBFB0
:103F80000FBECDBFDF91CF911F910F91FF90EF90AA
:103F9000DF90CF90BF90AF900895CD2829F0822F69
:103FA00083238F3F09F003C180E0F82FF170DF2EEB
:103FB00080FF3CC0809120024091EF0156E08413C5
:103FC00015C02D873E878D859E850E942912292F39
:103FD00022952F702230F0F0243018F59F70F1F008
:103FE000F8019581907FD1F4D12C1EC090E0589FAC
:103FF000F001599FF00D1124E051FE4F61813613FD
:1040000006C06081261303C06281E6120FC00196CC
:104010008770D5CF9F7011F0882331F3805E883090
:1040200018F3C8010E943C1CFD2CA5CFEE2009F41A
:10403000A2CF8091EE0181608093EE01F12C9BCFA5
:10404000431306C0921304C0F801EE2009F479C0AE
:10405000C8010E943512882309F1EE20F9F0809101
:10406000EE01803270F02091E9013091EA01388749
:104070002F831986DB86CA868C87CE0107960E941D
:104080003C1C86E0F801A9EEB1E001900D928A9502
:10409000E1F70E940B1FFF24F3946DCFC8010E942B
:1040A0003C1CF9CF51110AC089EE91E00E943C1CE2
:1040B00086E0F50111928A95E9F7C0CF43130FC04E
:1040C00092130DC0E1100BC0F8018583C8010E9456
:1040D0003C1C86E0F50111928A95E9F74CCFC801A6
:1040E0000E9435128823D1F2EE20C1F28091EE01B8
:1040F000803238F22091E9013091EA013A83298334
:104100001B82DD82CC828E83CE010196B8CFE83C43
:10411000F105F8F6FE2CEE2009F243131FC09213AE
:104120001DC08091EE0180FD10C0982F907F69F036
:10413000F8018583903F31F0982F907F905F8F70CA
:10414000892B8583C8010E943C1C86E0F801A9EEFA
:10415000B1E001900D928A95E1F70DCFC8010E9460
:10416000351281118ECF8091EE0181608093EE0136
:10417000C8010E943C1CFFCEEE2009F48FCFC8017D
:104180000E943512F82E882309F488CF86E0F801C2
:10419000A9EEB1E001900D928A95E1F78091E901D5
:1041A0009091EA010E9429120E940B1FE4CE81E047
:1041B0008E25FBCE1F93CF93DF93CDB7DEB76797E6
:1041C0000FB6F894DEBF0FBECDBF4B8B5C8B6D8BF3
:1041D0007E8B8F8B6111109223021A8A198A85E0D7
:1041E000FE017396DE011D9601900D928A95E1F70E
:1041F00086E0FE013D96DE01179601900D928A95AC
:10420000E1F7CE0107960E94611F882389F016E02E
:10421000809120029091EF01891349C067960FB6F3
:10422000F894DEBF0FBECDBFDF91CF911F910895EF
:1042300086E0FE013796DE01119601900D928A9577
:10424000E1F78A859B85892B11F38F8198858923D6
:104250008F3FE9F22091EF0130E0C90101968770AC
:104260009927409120024817190671F40E944F15B2
:104270001092EF011092200286E0E9EEF1E0DF01FA
:104280001D928A95E9F7C3CF96E0929FD001939F44
:10429000B00D1124A051BE4FFE01319601900D9238
:1042A0009A95E1F78093EF010E94D10AB0CF819FE8
:1042B000C001112480519E4F0E94611F882309F480
:1042C000ADCF8091200290E001968770992780936E
:1042D00020029ECFCF92DF92EF92FF920F931F9317
:1042E000CF93DF9300D000D000D0CDB7DEB7E82F5A
:1042F000F0E0EE0FFF1FE60FF11DEE0FFF1FE05085
:10430000FF4F008111810E94F7051E821D820983E3
:104310001A8321E02B8381609D838C834091F50279
:104320005091F60270E060E0BB27A72F962F852FF3
:104330000097A105B10509F472C0AC01BD0188E088
:104340006A017B0134E0F694E794D794C7943A95D8
:10435000D1F7C114D104E104F10419F08C5FB70165
:10436000A6016A017B0122E0F694E794D794C794F2
:104370002A95D1F7C114D104E104F10419F08E5F3C
:10438000B701A6017695679557954795452B462B1E
:10439000472B09F08F5F402F612F0E94BA118C01CB
:1043A000029768F1CE0101960E942B18882339F1FB
:1043B0001B82CE0101960E942B18882301F1011562
:1043C00080E21807E0F4680180EEC81AD108C8013D
:1043D0000E942D0CF82E88E0C816D10410F58F2D00
:1043E0000E94C60B802F0E94800F802F0E94D00B4E
:1043F00088E0C816D104C8F48F2D0E94BB0B81E061
:1044000026960FB6F894DEBF0FBECDBFDF91CF91D9
:104410001F910F91FF90EF90DF90CF90089580E073
:104420008FCF8F2D0E94B10BDDCF8F2D0E94A60B59
:10443000E6CF1F920F920FB60F9211242F933F9346
:104440004F935F936F937F938F939F93AF93BF939C
:10445000CF93DF93EF93FF93D091E900DF708091CA
:10446000EC00C82FC17080FDC0E81092E900809177
:10447000F000877F8093F00078940E94641510927A
:10448000E9008091F00088608093F000CD2BCF7020
:10449000C093E900FF91EF91DF91CF91BF91AF9170
:1044A0009F918F917F916F915F914F913F912F914C
:1044B0000F900FBE0F901F9018951F920F920FB67E
:1044C0000F9211242F933F934F935F936F937F939A
:1044D0008F939F93AF93BF93EF93FF938091E100EE
:1044E00082FF09C08091E20082FF05C08091E10057
:1044F0008B7F8093E1008091DA0080FF24C080915F
:10450000D80080FF20C08091DA008E7F8093DA008F
:104510008091D90080FF9BC080E189BD82E189BD87
:1045200009B400FEFDCF81E08093EB028091C602CA
:10453000811109C00E945B040E9426058091E2005F
:1045400084608093E2008091E10080FF17C0809139
:10455000E20080FF13C08091E2008E7F8093E20032
:104560008091E20080618093E2008091D8008062B7
:104570008093D80019BC85E08093EB028091E10024
:1045800084FF29C08091E20084FF25C080E189BDBD
:1045900082E189BD89B5982F917080FFFBCF809112
:1045A000D8008F7D8093D8008091E1008F7E80932A
:1045B000E1008091E2008F7E8093E2008091E20032
:1045C00081608093E2008091EC02882309F445C069
:1045D00084E08093EB028091E10083FF27C080910B
:1045E000E20083FF23C08091E100877F8093E10098
:1045F00082E08093EB021092EC028091E1008E7FCA
:104600008093E1008091E2008E7F8093E2008091B0
:10461000E20080618093E20042E060E080E00E947E
:10462000F4048091F00088608093F000FF91EF9196
:10463000BF91AF919F918F917F916F915F914F91BA
:104640003F912F910F900FBE0F901F90189519BC9E
:104650001092EB021092C60276CF8091E30087FDA4
:1046600093E09093EB02B7CF78941F921FB61F92FE
:1046700011248F939F93AF93BF938091BD0290912C
:10468000BE02A091BF02B091C0020196A11DB11D52
:104690008093BD029093BE02A093BF02B093C0026C
:1046A000BF91AF919F918F911F901FBE1F90189542
:1046B0001F921FB61F9211248F939F93AF93BF93A6
:1046C0008091BC02811113C08091BD029091BE0205
:1046D000A091BF02B091C0024196A11DB11D80936F
:1046E000BD029093BE02A093BF02B093C002BF91DF
:1046F000AF919F918F911F901FBE1F901895CDB7BE
:10470000DEB7E6970FB6F894DEBF0FBECDBF84B715
:10471000877F84BF0FB6F894A89580916000886168
:1047200080936000109260000FBE80E890E00FB6AA
:10473000F89480936100909361000FBE85B7806804
:1047400085BF85B7806885BF84E298E09093B30108
:104750008093B2010E945B040E9426058091E200D2
:1047600084608093E20078948091EB028823A1F02A
:104770001091E9001F709091EC00892F817090FDDD
:1047800080E8182B1092E9008091E80083FD0E94D8
:1047900064151F701093E90082E084BD93E095BD1D
:1047A0009AEF97BD80936E000E945C12811102C047
:1047B0000E9491110AE511E071E6E72E71E0F72EF3
:1047C000D8018D918D018F3F11F00E942608E016CF
:1047D000F106B1F701E611E066E6E62E61E0F62E9D
:1047E000F80181918F018F3F11F00E942608E01699
:1047F000F106B1F7EBE2F2E082E392E0A9E5B2E084
:1048000011921D928E179F07D9F70E9444158111AE
:1048100002C00E94001482E090E00E94C62B8093A8
:1048200051020E9475129093C2028093C1020E94AD
:104830006C14FFEF26E741E0F15020404040E1F7E3
:1048400000C000000E946C148091590280FF08C0D3
:104850006FEF7FEF90E080E00E94F82B0E94F10C58
:1048600083E090E00E94C62B90E00E94A00B809114
:104870003202811133C00E944415811104C00E948C
:1048800000140E94F11388E090E00E94CE2B609308
:10489000B1027093B2028093B3029093B4026E7F20
:1048A00071F40E94F11388E090E00E94CE2B609397
:1048B000B1027093B2028093B3029093B4020E944B
:1048C0004F06109274028091B10280FF04C060E034
:1048D00086950E948E1381E0809332026EE771E02C
:1048E0005BE3852E52E0952E26E731E0EAE7F1E022
:1048F00041E050E01191812F82958F7090E0DC01B2
:104900009196FC9091971F70E12E6A0101C0CC0C2A
:104910001A95EAF70C2D00950F2191960C9391971B
:1049200092961C9192971C2992961C93D901FD9006
:104930009D010F2D02950F7010E0D8019196BC904B
:10494000BF2DBF70FB2E6A0101C0CC0CBA95EAF7EF
:10495000DC2CD094DB20D8019196DC929197929632
:10496000DC909297DC289296DC92DC0190968C91F8
:1049700090E002C095958795EA94E2F78170D8019E
:1049800090960C9110E002C015950795FA94E2F705
:1049900090E000FD92E0892BD4018D934D016E17BC
:1049A0007F0709F0A7CF539A229A529A23982B98FF
:1049B0005B9A2A9A5A9A2B9A5A98BAE0BA95F1F7C2
:1049C00000C08AEB0E94B610E5E3EA95F1F700001B
:1049D0008AE50E94B610FAE0FA95F1F700C02A9A2B
:1049E0005A9A2FE74FEA82E0215040408040E1F799
:1049F00000C000000E94F21080E191E09093B902A3
:104A00008093B8028091EB0200E112E1853009F455
:104A1000C8C20E946C14882359F08FB7F894409153
:104A2000BD025091BE026091BF027091C0028FBF63
:104A3000E2E5F2E0A9E5B2E010E000E0302F8D9170
:104A40009191981709F4BCC2292F282790E0FF24E0
:104A5000F394422F4F2109F4AEC29DA73EA78F21A8
:104A600091E009F490E09FA70E94F7058160782FFC
:104A700099AB88AB4DA55EA56FA589A90E94DA20E8
:104A8000F801EE5AFD4F8081F826F0828091740281
:104A90008823D1F180917302E091B102E695E81B81
:104AA000E0936F02823009F0A2C2F0E0EE57FD4FB2
:104AB000E4910E2F10E04CE6E42E4FE0F42E8091AE
:104AC0007002882361F0109270020E94F7059093A3
:104AD0006E0280936D0210927202109271020E9417
:104AE000F705E0916D02F0916E028E1B9F0B8F3FD8
:104AF0009F4750F4E00FF11FF0936E02E0936D02B8
:104B00008DE692E0F701099537E3E32E32E0F32ECC
:104B100003E312E046E7A42E41E0B42E5AE7852EC7
:104B200051E0952E6BE3C62E62E0D62E312C212C5F
:104B300074E0672E712CD601ED916D01EE0FEE0F32
:104B4000D4012D914D01A22FA295AF70B0E09096A7
:104B50008C9190E02F7002C0959587952A95E2F789
:104B600081709927D5014D915D01A42FA295AF7059
:104B7000B0E090962C9130E04F7002C035952795AB
:104B80004A95E2F7A9014170552720FF02C042E093
:104B900050E0842BE82BD6011197EC93EF70F0E0F6
:104BA000EA59FE4F8081F7019081890F808320E0D0
:104BB00084304CF0D8018C918F5F8C9360E0832D12
:104BC0000E946A2121E0F70180818D3F4CF4D801D9
:104BD0008C9181508C9361E0832D0E946A2121E0A9
:104BE000F7018081082E000C990BB3010E94462B1F
:104BF000D7018D937D01222A33940F5F1F4FB4E0BC
:104C00003B1299CF222059F08FB7F8944091BD0202
:104C10005091BE026091BF027091C0028FBF86E0CA
:104C2000E7E6F2E0DE01119601900D928A95E1F738
:104C3000F0906902E0906A0210916B0200916C02A0
:104C40001092690210926A0210926B0210926C022A
:104C50008F2D8E2909F448C08091650290916602DB
:104C60000E94E8059C0190916102992309F4E7C430
:104C700023333105C8F19F3F19F09F5F9093610284
:104C8000FF2059F00E94AA079FEF1F140CF491E037
:104C9000899F802D112480936902EE2059F00E9493
:104CA000AA079FEF1E140CF491E0899F802D112418
:104CB00080936A02309169023323B1F020916A0235
:104CC000222391F045EB3403C0011124992309F408
:104CD000E8C19093690245EB24039001112433232A
:104CE00009F4E3C130936A02812F802B09F448C094
:104CF00080916302909164020E94E8059C0190916A
:104D00006002992309F496C425363105C8F19F3F06
:104D100019F09F5F90936002112359F00E94880759
:104D20009FEF11160CF491E0899F802D1124809340
:104D30006B02002359F00E9488079FEF10160CF4B5
:104D400091E0899F802D112480936C0230916B0239
:104D50003323B1F020916C02222391F045EB340310
:104D6000C0011124992309F4A4C190936B0245EB6F
:104D7000240390011124332309F49FC130936C0262
:104D80008091690290916A02892B90916B02892B24
:104D900090916C02892B11F00E94F40686E0FE01CE
:104DA0003196A7E6B2E001900D928A95E1F786E090
:104DB000E5E4F2E0DE01919601900D928A95E1F72B
:104DC00086E0FE01B196DE01119601900D928A9562
:104DD000E1F786E0FE013196DE01979601900D9293
:104DE0008A95E1F7EB800C81CD80DE800E94F21085
:104DF000182FF92E811165C191116DC180914F025B
:104E0000882309F457C00E2C000CFF0860914D0256
:104E100070914E026E0D7F1D6A3071050CF4A6C1B3
:104E2000072E000C880B990B0E94B32C20E030E079
:104E300040E251E40E940E2C0E947B2C70934E02A3
:104E400060934D02DD24D394002E000C110B609171
:104E50004B0270914C02600F711F643171050CF4AC
:104E6000A3C1072E000C880B990B0E94B32C20E0E5
:104E700030E040EA51E40E940E2C0E947B2C70939B
:104E80004C0260934B02CC24CA9417FF03C01195C7
:104E900001951109F7FE03C0F194E194F1080E1594
:104EA0001F050CF49FC110924E0210924D02D12C9E
:104EB00000E0E12CE9A60AA7CBA6DCA686E0FE016D
:104EC000B796DE01119601900D928A95E1F786E082
:104ED000FE013196A5E4B2E001900D928A95E1F7CA
:104EE00030914702209148029091490280914A02F4
:104EF00070914102609142024091430250914402FC
:104F0000F0914602E0914002FE1372C1332311F08A
:104F100073136EC1222311F062136AC1882311F04A
:104F2000581366C1992319F081E0491362C180E0EA
:104F300060C18091EB02843021F11092BC02A8E1A3
:104F4000B0E0E0E40FB6F894A895A09360000FBE1F
:104F5000E093600083B7817F846083BF83B7816003
:104F600083BF7894889583B78E7F83BF0FB6F894FC
:104F7000A895809160008861809360001092600025
:104F80000FBE8091EA02882361F00E946C14E9E56B
:104F9000F2E0819181112FC380E692E08E179F0786
:104FA000C1F78091EB02853009F4C3CF0E944F1501
:104FB0000E943D062ECD9F5FFF0C953009F049CD34
:104FC0000F5F1F4F0730110509F038CD8FEF8AAB07
:104FD0008BAB1CAA0E94F7058160782F9EAB8DAB2E
:104FE0004AA95BA96CA98EA90E94DA204FCD863010
:104FF00059F4F0E0E158FD4FE4910E2F10E03CE54C
:10500000E32E3FE0F32E5BCD893061F4E695F0E0CE
:10501000E458FD4FE4910E2F10E028ECE22E2EE034
:10502000F22E4DCD8F3061F4E695F0E0E758FD4F5C
:10503000E4910E2F10E09AE5E92E9EE0F92E3FCD87
:10504000853159F4F0E0EA58FD4FE4910E2F10E05D
:105050008CE0E82E8EE0F82E32CD08E210E0F3E886
:10506000EF2EFDE0FF2E883109F429CD833249F47B
:10507000E4E7F2E005911491B3E0EB2EBFE0FB2EE4
:105080001ECD04EF11E0AAE4EA2EADE0FA2E843240
:1050900009F415CD00ED17E0EEE4EE2EE6E0FE2E6D
:1050A0000ECD81E08093690216CE81E080936A0282
:1050B0001BCE81E080936B025ACE81E080936C021C
:1050C0005FCE082E000C990B97FF03C09195819538
:1050D000910902975CF48F2D0F2C000C990B97FF10
:1050E00003C091958195910902974CF1612F110FA1
:1050F000770B880B990B0E94B32C20E030E040E442
:1051000050EC0E943F2D2B013C016F2DFF0C770BC3
:10511000880B990B0E94B32C20E030E040E450E46F
:105120000E943F2D4B015C01C301B2010E947B2C08
:10513000E62EC501B4010E947B2C062F5FCE6F2D99
:10514000FF0C770B880B990B0E94B32C4B015C0171
:10515000612F110F770B880B990B0E94B32C2B0139
:105160003C0177FA709477F87094DECF673F8FEF49
:1051700078072CF070934E0260934D0265CE072E97
:10518000000C880B990B0E94B32C20E030E040E229
:1051900051E40E940F2C0E947B2C70934E0260936E
:1051A0004D02DD24DA9450CE6D3E9FEF79072CF04E
:1051B00070934C0260934B0268CE072E000C880B54
:1051C000990B0E94B32C20E030E040EA51E40E94A9
:1051D0000F2C0E947B2C70934C0260934B02CC24CA
:1051E000C39453CE10924C0210924B02C12C60CE4D
:1051F00081E080FF04C085E492E00E942F061092B7
:105200004702109248021092490210924A0286E028
:10521000E5E4F2E0AFE3B2E001900D928A95E1F7A8
:105220000E943D0690915002891721F00E943D0690
:10523000809350028091EB02843009F0E3CB83E04D
:105240008093E9008091E80082FFDCCB8091E80048
:1052500090E085FF05C00E947A04882399F091E0D0
:105260008091E8008B778093E800992309F4CACBFA
:10527000E981E150E33108F08AC0F0E0E451F24DF9
:105280000C947C2B00E210E0DE0111967D018091F0
:10529000E80085FD0AC08091E8008B778093E800E4
:1052A0000E947A04882399F3DACF8091F100F70104
:1052B00081937F010150110951F7D1CF1A8289E002
:1052C0008B831AC08A81823009F4ABC18330D9F153
:1052D000813009F05CC02FB7F8946091BD027091E5
:1052E000BE028091BF029091C0022FBF0E94822B0C
:1052F0006B837C838D839E838091EB02843009F0E5
:1053000081CB1091E9001F709091EC00892F817082
:1053100090FD80E8182B82E08093E9008091E800FE
:1053200080FF0DC050E040E060E270E0CE010196E9
:105330000E94AB048091E8008E778093E8001F7094
:105340001093E9005FCB809159028B8380915A02C0
:105350008C8380915B028D8380915C028E8380912F
:105360005D028F8380915E02888780915F028987CA
:10537000C3CF8A81823059F46B817C818D819E817B
:105380000E94822B86E290E00E94DA2BB5CF8FEF4D
:105390008983B2CF4C816B818A810E94BA11982790
:1053A000892798279E838D83A7CFED80FE80FE24DA
:1053B000EF24FE248A810B81FAE00F9F80011124E3
:1053C00026E4829F000D111D11248C8190E0880F2E
:1053D000991F080F191F6F2DC80187960E94DA2B9D
:1053E0006E2DC8018896D0CF0E94241185CF8A8166
:1053F0008138C1F060F4803809F07ECF20E04B8125
:105400006091B3028091B2020E94951275CF8238EA
:1054100059F1833809F070CF20E04091B4026C81DB
:105420008B81F2CF60E08B810E948E139B818091F3
:10543000B102911111C08E7F8093B102109274025B
:105440004FEF80E792E0415080409040E1F700C08C
:1054500000000E94150D50CF81608093B10260E082
:1054600086950E948E1348CF8B818093B50244CFDE
:105470008A81813899F030F4803809F03DCF8091ED
:10548000B4021ECF823891F0833809F035CF809175
:10549000B2028B838091B3028C832ECF8091B102B4
:1054A00080FF02C086950CCF80E00ACF8091B502C4
:1054B00007CF6091B1027091B2028091B3029091D6
:1054C000B4020E94831218CF80E18A8315CF1A821A
:1054D00087EDF6CE0A811B81102701271027DE01F8
:1054E00011966D01EC80FD01EE0DF11D7F01C801EB
:1054F000875D9C4FEC14FD0409F4FECE073D1105B9
:1055000058F40E94C62BD60114968C930F5F1F4F40
:10551000FFEFCF1ADF0AEBCFF6011482F7CF0A8133
:105520001B81102701271027CE0101966C01EC800A
:10553000E00EF12EF11CC801875D9C4F0E151F0572
:1055400009F4DACE073D110528F4D60114966C91C2
:105550000E94DA2BBFEFCB1ADB0A0F5F1F4FEBCF96
:105560000E941411C9CE8BE0B0CF0A811B81102795
:1055700001271027FE0131966F01EC80CF018E0DBF
:10558000911D7C01C8018796CE14DF0409F4B4CEC6
:105590000230A3E01A0750F40E94C62BF601848360
:1055A0000F5F1F4FBFEFCB1ADB0AECCFD60114966B
:1055B0001C92F6CF0A811B81102701271027FE01BC
:1055C00031966F01EC80E00EF12EF11CC801879638
:1055D0000E151F0509F490CE0230F3E01F0728F4E2
:1055E000D60114966C910E94DA2BBFEFCB1ADB0A1E
:1055F0000F5F1F4FEBCF09BD19BD09B400FEFDCFF2
:105600008091D8008F7D8093D8008091E0008260E7
:105610008093E0008091E00081FDFCCF0E944F1557
:10562000C0CC86E290E00E94C62B1B821C821D82A9
:105630008E8362CE2D32314008F06BCBA1CB2D3260
:10564000314008F01ACB50CB87FB082E062687FD89
:10565000819567FD61950E94BA2B0EF4919507FC28
:1056600081950895AA1BBB1B51E107C0AA1FBB1F50
:10567000A617B70710F0A61BB70B881F991F5A95DE
:10568000A9F780959095BC01CD01089597FB072E51
:1056900016F4009407D077FD09D00E94322B07FC46
:1056A00005D03EF4909581959F4F08957095619532
:1056B0007F4F0895A1E21A2EAA1BBB1BFD010DC04E
:1056C000AA1FBB1FEE1FFF1FA217B307E407F507B2
:1056D00020F0A21BB30BE40BF50B661F771F881F8E
:1056E000991F1A9469F760957095809590959B0124
:1056F000AC01BD01CF010895EE0FFF1F0590F4919D
:10570000E02D099469279627692778278727782726
:1057100008950E94912B332312F48A1B9B0B0C9447
:10572000A22BA29FB001B39FC001A39F700D811D4A
:105730001124911DB29F700D811D1124911D08959A
:105740000E94912BB7FF0895821B930B08950E942E
:10575000912BA59F900DB49F900DA49F800D911D3E
:1057600011240895B7FF0C94A72B0E94A72B821B2E
:10577000930B0895991B79E004C0991F961708F0C0
:10578000961B881F7A95C9F780950895F999FECFE1
:1057900092BD81BDF89A992780B50895A6E1B0E041
:1057A00044E050E00C94002CA8E1B0E042E050E06E
:1057B0000C94002C262FF999FECF92BD81BDF89A4A
:1057C000019700B4021639F01FBA20BD0FB6F89445
:1057D000FA9AF99A0FBE08950396272F0E94DB2BA1
:1057E0000E94DA2B252F0E94DB2B242F0C94DB2B1D
:1057F0000196272F0E94DB2B0C94DA2BDC01CB01C6
:10580000FC01F999FECF06C0F2BDE1BDF89A3196D0
:1058100000B40D9241505040B8F708955058BB273E
:10582000AA270E94262C0C94052D0E94F72C38F0F4
:105830000E94FE2C20F039F49F3F19F426F40C94BA
:10584000F42C0EF4E095E7FB0C94EE2CE92F0E946B
:10585000162D58F3BA17620773078407950720F0CF
:1058600079F4A6F50C94382D0EF4E0950B2EBA2F92
:10587000A02D0B01B90190010C01CA01A001112456
:10588000FF27591B99F0593F50F4503E68F11A1602
:10589000F040A22F232F342F4427585FF3CF469593
:1058A00037952795A795F0405395C9F77EF41F16B5
:1058B000BA0B620B730B840BBAF09150A1F0FF0F7F
:1058C000BB1F661F771F881FC2F70EC0BA0F621F6B
:1058D000731F841F48F4879577956795B795F7955B
:1058E0009E3F08F0B0CF9395880F08F09927EE0FF0
:1058F0009795879508950E94822C6894B1110C9415
:10590000392D08950E941E2D88F09F5798F0B92FC9
:105910009927B751B0F0E1F0660F771F881F991FE4
:105920001AF0BA95C9F714C0B13091F00E94382D21
:10593000B1E008950C94382D672F782F8827B85F31
:1059400039F0B93FCCF3869577956795B395D9F73C
:105950003EF490958095709561957F4F8F4F9F4F46
:105960000895E89409C097FB3EF490958095709552
:1059700061957F4F8F4F9F4F9923A9F0F92F96E99B
:10598000BB279395F695879577956795B795F11110
:10599000F8CFFAF4BB0F11F460FF1BC06F5F7F4FAD
:1059A0008F4F9F4F16C0882311F096E911C07723BF
:1059B00021F09EE8872F762F05C0662371F096E8C8
:1059C000862F70E060E02AF09A95660F771F881F97
:1059D000DAF7880F9695879597F9089597F99F6755
:1059E00080E870E060E008959FEF80EC0895002467
:1059F0000A941616170618060906089500240A9434
:105A000012161306140605060895092E0394000CB9
:105A100011F4882352F0BB0F40F4BF2B11F460FF48
:105A200004C06F5F7F4F8F4F9F4F089557FD905871
:105A3000440F551F59F05F3F71F04795880F97FB52
:105A4000991F61F09F3F79F087950895121613060C
:105A50001406551FF2CF4695F1DF08C0161617063B
:105A60001806991FF1CF8695710561050894089570
:105A7000E894BB2766277727CB0197F908950E9402
:105A8000522D0C94052D0E94F72C38F00E94FE2C0C
:105A900020F0952311F00C94EE2C0C94F42C11248E
:105AA0000C94392D0E94162D70F3959FC1F3950F1C
:105AB00050E0551F629FF001729FBB27F00DB11D92
:105AC000639FAA27F00DB11DAA1F649F6627B00D22
:105AD000A11D661F829F2227B00DA11D621F739F0B
:105AE000B00DA11D621F839FA00D611D221F749F19
:105AF0003327A00D611D231F849F600D211D822F60
:105B0000762F6A2F11249F5750409AF0F1F0882386
:105B10004AF0EE0FFF1FBB1F661F771F881F9150B3
:105B20005040A9F79E3F510580F00C94EE2C0C9448
:105B3000392D5F3FE4F3983ED4F3869577956795CA
:105B4000B795F795E7959F5FC1F7FE2B880F911DDD
:105B50009695879597F90895FC014150504030F093
:105B600001900616D1F73197CF010895882799271C
:105B70000895FB01DC0104C08D910190801921F48E
:105B800041505040C8F7881B990B0895F894FFCFF7
:105B90004712471250125012521250125012501205
:105BA00047124712571250125012571249167116C7
:105BB000C4167116C416A416DC16C416D917E61737
:105BC000B81CB81C241D241D7E1D981DED1CED1C49
:105BD000DB1D631E721E721E5E296229B929CA2945
:105BE000D529F429F729382A592AC729C729642A27
:0E5BF000672A6A2A8F2AB02AB32AB52ADA2A2F
:105BFE00010101000201020003010300040104007F
:105C0E00E505B10C900C8C0C880C01191A1B1C1D8F
:105C1E001E1F20212201020101818283E200E90080
:105C2E00EA00B500B600B700CD008301CC008A01B2
:105C3E009201940121022302240225022602270248
:105C4E002A02B300B4006F007000C7C596973435B2
:105C5E0036373031949500FF0100010000FFFF0040
:105C6E0000010001FF0067F1F5F791F0F4F6000175
:105C7E00020202020606060909090909090F0F0F99
:105C8E000F0F0F15151518191919191919191919A1
:105C9E001923244022B684016201AC009F07B80785
:025CAE00D80715
:00000001FF
