:100000000C94D7030C941E040C941E040C941E0430
:100010000C941E040C941E040C941E040C941E04D8
:100020000C941E040C941E040C94AA260C946626B0
:100030000C94A5270C941E040C941E040C941E040E
:100040000C941E040C941E040C941E040C941E04A8
:100050000C941E040C9481270C941E040C941E0412
:100060000C941E040C941E040C941E040C941E0488
:100070000C941E040C941E040C941E040C941E0478
:100080000C941E040C941E040C941E040C941E0468
:100090000C941E040C941E040C941E040C941E0458
:1000A0000C941E040C941E040C941E0405010902F9
:1000B000A10185020901A100050919012905150001
:1000C00025019505750181029501750381010501E1
:1000D000093009311581257F950275088106093897
:1000E0001581257F950175088106050C0A380215D2
:1000F00081257F950175088106C0C005010980A191
:1001000001850319012AB700150126B7009501756D
:10011000108100C0050C0901A101850419012AA064
:1001200002150126A002950175108100C005010984
:1001300006A1018505050719E029E71500250195A8
:1001400008750181020507190029EF1500250195A1
:10015000F0750181020508190129059505750191C0
:1001600002950175039101C00660FF0961A10109B3
:1001700062150026FF0095207508810209631500AD
:1001800026FF00952075089102C005010906A1010E
:10019000050719E029E71500250195087501810279
:1001A0009501750881010507190029FF150026FF33
:1001B0000095067508810005081901290595057542
:1001C000019102950175039101C00000000000003B
:1001D000000000000000000000000000000000001F
:1001E00000000000000000000000000000007E0F82
:1001F00000D4FFFFFFC700000078000000000000EF
:1002000000002A2B28000000000000000000000071
:10021000000000000029000000002C1E34202122D4
:1002200024342627252E362D3738271E1F2021223D
:10023000232425263333362E37381F0405060708B6
:10024000090A0B0C0D0E0F101112131415161718A6
:10025000191A1B1C1D2F3130232D350405060708E4
:10026000090A0B0C0D0E0F10111213141516171886
:10027000191A1B1C1D2F3130354C00047F3F1F64A1
:100280003214643214783C1E1E140A05FD377A5865
:100290005A000004E6D6B446020021011600000010
:1002A000742FE5A3E0040F01105D003D8889C6545A
:1002B00036C3174FE4FBA821B918A24DE06CF887AC
:1002C0003C78B5612E10E3AFF66C445CE933C4B7FB
:1002D0005F04725D23B0A0C48B0CC738A317AF773F
:1002E000DDF54F94CEFCBEDE43B4D4501B3F6A8F85
:1002F000F038E11313BFFDC36EFED3C4959F5CC2FB
:1003000067B4DCE55EB3F122FA2061D64831FD1313
:10031000EB62481BE7EF16F53EE517FD3925EF5F69
:1003200077E805A2D4A73D75194CD098A60F7DDDBE
:100330006691463BCBF4ABD430E5D681EA9B802076
:1003400084364C8913380513892029E10B9CB7C4E6
:10035000C8B781B1E62D4EC6B41641728B976BB803
:100360003F31A4D958A9BA11F1D5A2AA007058E119
:1003700024E01462C86D5C788EA7C1C37FEFCA7297
:10038000CB35C5E3026E8A310C60445C02E3132F67
:100390009CFACBDBC41E9AD33DA3FA666875192379
:1003A0001839B3B60A93B66A8FD6202E79FC653415
:1003B00077E467CA92E2755E87EE00006B12682FE1
:1003C000E146B9940001AC029008000034E61864DC
:1003D000B1C467FB020000000004595A000101018A
:1003E00001010101010102020202020202020203F2
:1003F00003030303030303040404040404040505C2
:100400000505050606060606070707070708080884
:1004100008090909090A0A0A0B0B0B0C0C0C0D0D33
:100420000D0E0E0E0F0F0F101011111112121313CB
:100430001414151516161717181819191A1A1B1B44
:100440001C1D1D1E1E1F20202122222324242526A0
:1004500026272829292A2B2C2D2D2E2F30313232D8
:10046000333435363738393A3B3C3D3E3F404142E4
:10047000434445464748494A4C4D4E4F50515354CA
:10048000555658595A5B5D5E5F616264656668697E
:100490006B6C6D6F7072737577787A7B7D7E8082FE
:1004A000838587888A8C8E8F91939596989A9C9E47
:1004B000A0A2A3A5A7A9ABADAFB1B3B5B7BABCBE57
:1004C000C0C2C4C6C9CBCDCFD1D4D6D8DBDDDFE224
:1004D000E4E7E9EBEEF0F3F5F8FAFDFFFFAA7F554C
:1004E000402223252628292A2C2D2F303233353639
:1004F000383A3B3D3E4042434547494A4C4E5051B5
:10050000535557595A5C5E6062646668696B6D6FDB
:1005100071737577797B7D7F81838587898A8C8EDE
:1005200090929496989A9C9E9FA1A3A5A7A8AAACE6
:10053000AEAFB1B3B4B6B8B9BBBCBEBFC1C2C3C520
:10054000C6C7C9CACBCCCDCED0D1D2D2D3D4D5D6C2
:10055000D7D7D8D9D9DADADBDBDBDCDCDCDCDCDDF5
:10056000DDDDDDDCDCDCDCDCDBDBDBDADAD9D9D8D9
:10057000D7D7D6D5D4D3D2D2D1D0CECDCCCBCAC971
:10058000C7C6C5C3C2C1BFBEBCBBB9B8B6B4B3B1A0
:10059000AFAEACAAA8A7A5A3A19F9E9C9A9896943B
:1005A00092908E8C8A89878583817F7D7B79777510
:1005B00073716F6D6B6968666462605E5C5A5957EF
:1005C000555351504E4C4A4947454342403E3D3BAE
:1005D0003A3836353332302F2D2C2A292826252338
:1005E000220A0008000A000C000E000B000400059F
:1005F00000060007000C0009000B000D000F0010A2
:1006000000110012001300F9001500160017001861
:1006100000FA001A001B001C001D0004000500F277
:1006200000F500F6000900010001000100010001D1
:1006300000010001000100010001000100010001B2
:1006400000010001000100010001000100010001A2
:100650000001000100010001000100010001000192
:100660000001000100010001000100010001000182
:100670000001000100010001000100010001000172
:100680000001000100010001000100010001000162
:100690000001000100010001000100010001000152
:1006A0000001000100010001000100010001000142
:1006B0000001000100010001000100010001000132
:1006C0000001000100010001000100010001000122
:1006D0000001000100010001000100010001000112
:1006E0000001000100010001000100010001000102
:1006F00000010001000100010009025B000301008C
:10070000A0FA090400000103010100092111010000
:10071000012240000705810308000A0904010002C4
:1007200003000000092111010001222200070582B7
:100730000320000107050303200001090402000152
:100740000300000009211101000122BC00070584FB
:100750000320000A1201000200000008171901001E
:100760000100010203011C037600690061006C00B6
:100770003A00660036003400630032006200330045
:10078000630000000E03760039003900700061003C
:1007900064000000140374006F00750063006800BB
:1007A000730065006E007300000004030904112447
:1007B0001FBECFEFDAE0DEBFCDBF04B603FE27C019
:1007C0008091CE039091CF03A091D003B091D1033B
:1007D0008730904BA740B04BD1F41092CE031092CB
:1007E000CF031092D0031092D10314BE84B7877F39
:1007F00084BF0FB6F894A8958091600088618093BB
:100800006000109260000FBEE0E0F8E3099511E08F
:10081000A0E0B1E0EEE3F7E602C005900D92AE3B3A
:10082000B107D9F723E0AEEBB1E001C01D92AE3CB9
:10083000B207E1F70E94CC270C946B330C940000B4
:10084000E8EDF0E080818E7F80831092E2001092CC
:10085000DA001092E100A0EEB0E08C9181608C9300
:1008600080818F77808319BCA7EDB0E08C918E7F5B
:100870008C9380818F7E808310929B0308952091BA
:10088000E4003091E50095E6A9012091EC00822F6B
:10089000817020FF06C08091E80080FF06C080E0E4
:1008A00008952091E80022FD1AC08091C00388239A
:1008B00089F0853089F08091EB0085FD0FC0209193
:1008C000E4003091E50042175307F9F29150E1F648
:1008D00084E0089582E0089583E0089581E008951A
:1008E000EF92FF920F931F93CF937C018B010E9495
:1008F0003F04C82F811117C08091E80085FD0BC00F
:100900008091E8008E778093E8000E943F0488235E
:1009100099F3C82F08C0F70181917F018093F100FE
:100920000150110949F78C2FCF911F910F91FF9022
:10093000EF9008958091C20387FF13C08091E80073
:1009400082FF06C08091E8008B778093E80004C0A6
:100950008091C0038111F2CF08958091C003882354
:10096000D9F38091E80080FFF8CF8091E8008E777E
:10097000ECCF982F9093E900242F762F50E0891721
:1009800031F07091EC002091ED005091F00021FDCC
:1009900007C09F5F973071F78093E90081E0089569
:1009A0003091EB003E7F3093EB003091ED003D7FC6
:1009B0003093ED003091EB0031603093EB00709399
:1009C000EC002093ED005093F0002091EE0027FD05
:1009D000E0CF80E00895CF92DF92EF92FF920F93E5
:1009E0001F93CF93DF93C8EDD0E088818F7E8883FB
:1009F000E7EDF0E080818160808384E082BF81E068
:100A000080939B0388818E7F888302EE10E0F8013B
:100A100010821092DA0081EEC82ED12CF6011082DD
:100A200088818F77888388818068888388818F7D9B
:100A3000888319BC1092C0031092C1031092BF03A7
:100A40001092BE0390EEE92EF12CF70180818B7F8E
:100A5000808388818160888342E060E080E00E943A
:100A6000B904F60180818E7F8083F80180818160E6
:100A70008083808188608083F70180818E7F80837E
:100A8000888180618883DF91CF911F910F91FF90C2
:100A9000EF90DF90CF900895FC018091C803909172
:100AA000C90386179707A0F06115710529F4909185
:100AB000E8009E779093E80090E06115710551F48D
:100AC000911108C08091E80082FF34C080E0089551
:100AD000BC01F2CF8091C0038823C1F18530C1F100
:100AE0008091E80083FD30C08091E80082FDEACF6C
:100AF0008091E80080FFE1CF8091F3002091F20027
:100B0000382F6115710519F02830310558F091E042
:100B10002830310509F090E02091E8002E772093ED
:100B2000E800CBCF81918093F100615071092F5F74
:100B30003F4FE7CF8091C003882341F0853041F0DB
:100B40008091E80083FFBECF81E0089582E00895A0
:100B500083E0089580919D0308959C014FB7F89418
:100B60008091920390919303A0919403B091950387
:100B70004FBF821B930B08952FB7F8948091920377
:100B800090919303A0919403B09195032FBF089582
:100B900020918F03309190032817390771F09093BB
:100BA000900380938F03E0918D03F0918E03309733
:100BB00021F00084F185E02D0994089520918B03A4
:100BC00030918C032817390771F090938C03809330
:100BD0008B03E0918D03F0918E03309721F0068016
:100BE000F781E02D09940895E0918D03F0918E0333
:100BF000309739F022E0DC012C930480F581E02D60
:100C000009940895E0918D03F0918E03309721F0BF
:100C10000190F081E02D099480E00895FA0181119E
:100C200001C0FB01099408958091BC02982F9E7F1A
:100C300029F4817082608093BC0208958A34E8F3BD
:100C400081708864F8CFAF92BF92DF92EF92FF92EB
:100C50000F931F93CF93DF93082F162FE901E42FF3
:100C6000F0E0E452FC4F611110C0E4915E2F4E2F72
:100C70004983E8835A83DF91CF911F910F91FF90B1
:100C8000EF90DF90BF90AF900895E62EF12C449145
:100C9000D42EE42FF0E026E0829FC00111242FEF34
:100CA00030E0B9010E94AF30802F90E0880F991F8B
:100CB00055E5569FD001579FB00D11248A1B9B0B01
:100CC000982F990F890F5901AE18BF08AE9ED00119
:100CD000AF9EB00DBE9EB00D11245B2F189F8001FA
:100CE0001124012F11275901A01AB10AAE9E8001CB
:100CF000AF9E100DBE9E100D11245901A81AB10807
:100D0000AE9CC001AF9C900DBE9C900D1124892F0C
:100D10009927281B390B2E9FC0012F9F900D3E9FB6
:100D2000900D1124E92F62307105A1F050F4611586
:100D3000710509F49DCF6130710581F0EB2F512FC2
:100D400097CF6430710569F080F06630710509F461
:100D50008FCFF4CFE42F4B2F592F8ACFE42F412F81
:100D600087CFEB2F542F492F83CF4B2F5D2DE12FB2
:100D70007FCF0E94BC059C01909174028091750206
:100D8000982B21F03093710220937002909176029B
:100D900080917702982B21F030936F0220936E029E
:100DA00082E792E00C94F40590917402803F59F42C
:100DB0008091750287FF0DC01092750291110BC0D2
:100DC00010926C0208C0813F81F480917502181660
:100DD0009CF3992381F08091760290917702892B80
:100DE00009F064C010926B020895823F49F497FFA6
:100DF000F0CF10927402809175028111ECCFE0CF98
:100E0000833F19F41916ACF3E4CF20917602893FA1
:100E100029F41216F4F610927602DBCF8A3F19F409
:100E200027FFD7CFF8CF209177028B3F29F427FFF8
:100E3000D0CF10927702CDCF8C3F19F41216CCF39D
:100E4000C8CF843F31F4809173028E7F8093730208
:100E5000C0CF853F21F4809173028D7FF7CF863F0D
:100E600021F4809173028B7FF1CF873F21F4809131
:100E70007302877FEBCF883F21F4809173028F7ECE
:100E8000E5CF8D3F31F480916D028E7F80936D02AE
:100E9000A0CF8E3F21F480916D028D7FF7CF8F3FE1
:100EA00009F097CF80916D028B7FF0CF08958091EC
:100EB0006D0280FD16C081FD16C082FD16C08091B6
:100EC0006B028823A1F0883280F428E0829FC00161
:100ED000112468E270E00E94C330862F672B39F03E
:100EE000089582E0089584E0089588E0089581E0FF
:100EF000089580916D0280FD14C081FD14C082FDB3
:100F000016C080916C02882381F0843180F422E342
:100F1000829FC001112464E170E00E94C330862FDB
:100F200008958CE0089589E1089585E0089582E3AD
:100F30000895803F31F40E9479078195809375026E
:100F40000895813F19F40E947907F8CF823F31F468
:100F50000E9479078195809374020895833F19F464
:100F60000E947907F8CF893F29F40E9457078093A0
:100F7000760208958A3F21F40E9457078195F7CFA2
:100F80008B3F31F40E945707819580937702089533
:100F90008C3F19F40E945707F8CF843F31F48091B9
:100FA00073028160809373020895853F21F48091DC
:100FB00073028260F7CF863F21F4809173028460D0
:100FC000F1CF873F21F4809173028860EBCF883F97
:100FD00021F4809173028061E5CF8D3F31F48091DF
:100FE0006D02816080936D0208958E3F21F480919F
:100FF0006D028260F7CF8F3FB9F780916D028460F8
:10100000F1CF80E00895F894E82FE295EF70F0E0DA
:1010100031A1282F2F7081E090E001C0880F2A9520
:10102000EAF7982F9095932391A392A1892B82A3FD
:10103000789408959091960392FF06C0282F287106
:101040002830F9F4877F846093FF06C0282F287129
:101050002831F1F4877E84612091970320FF06C038
:10106000382F38713830D9F4877F816021FF06C06E
:10107000282F28712831D1F4877E816194FD877EE5
:101080000895282F24712430F9F68B7F8860DCCFF7
:10109000282F2471243101F78B7E8861DDCF382F12
:1010A0003171313019F78E7F8860E0CF282F2171A0
:1010B000213121F78E7E8861E1CFCF93DF93EC0160
:1010C00082389105A9F1D8F58133910509F496C0CC
:1010D00048F58932910509F48AC08A9709F495C0C8
:1010E000C11521E5D20708F0BCC0C11530E5D30712
:1010F00008F014C1C83ED10508F09CC0C03ED1051F
:1011000060F5C83AD10508F087C0C53AD10508F0A6
:10111000FDC0C130D10509F12097F9F0C430D105E7
:10112000E0F440C08533910509F45AC0C997C1F66F
:1011300080919603837089F0C0EED0E00EC0833EAC
:10114000910599F170F4803E910501F1823E91057F
:1011500039F68091960382FD21C0CE01DF91CF91B7
:101160000895863E910561F1873E910571F1843EB7
:10117000910509F0B5CF8091970381FFEECF809163
:101180009603C7EED0E084FD0DC0E7CF80919603B3
:1011900080FD12C19091970390FFDFCFC3EED0E0A6
:1011A00084FFDBCFD0E0C0E0D8CF8091960382FDF2
:1011B00006C19091970390FDBFCF84FFCECFF2CFB1
:1011C0008091960383FDDDCFC8CF8091960383FD88
:1011D000F9C09091970391FFF0CFC4EED0E0BDCF5E
:1011E0008091960385FFB9CFC9E2D0E0B6CF809158
:1011F000960385FFB2CFC5E3D0E0AFCF80919603D1
:1012000086FFABCFCAE2D0E0A8CF8091960386FFDD
:10121000A4CFC1E3D0E0A1CFCF3BD10518F6C85A87
:10122000D0E0CC0FDD1FC95CDE4F0990D881C02D06
:10123000D46493CFC11540E2D40758F4C11581E0BE
:10124000D80708F08ACFC03FD10508F4ABCFD065EE
:1012500084CFC11590E4D90708F4A4CFDF70D06A19
:101260007CCFC11525E5D20700F5C11534E5D307BC
:1012700008F08AC0C11543E5D40708F071C0C11554
:1012800082E5D80708F467C0CE018370992721E072
:1012900030E002C0220F331F8A95E2F7C695C6954B
:1012A00080E2C89FE001112452C0C11599E5D90719
:1012B000A8F4C11528E5D20708F06BC0C11536E5C2
:1012C000D30708F06FCF8C2F0E941A08C82FD0E0E8
:1012D000DC2FCC27CC27DF71D0623FCFC1154AE588
:1012E000D40708F45BC0CE0190568115904208F0F7
:1012F00059CF8D2F8F710E941A0890E0982F882760
:1013000088279F719C012C2BE901E6CFC55AD0E0BC
:10131000CC5CDE4FC881D0E0D0641FCFCE01E4E0CA
:1013200096958795EA95E1F783702C2F269526955B
:10133000237040E2249F90011124382B8C2F83705E
:10134000C1E0D0E002C0CC0FDD1F8A95E2F7C22BCE
:10135000D32BDC6802CFDC2FCC27C16FD06AFDCE47
:10136000CE018370992721E030E002C0220F331FA5
:101370008A95E2F7C695C69590E2C99FE0011124CF
:10138000C22BD32BDA68E9CEDC2FCC27C46FD06A0E
:10139000E4CEDC2FCC27C06FD06ADFCE8C2F8F70CD
:1013A0000E941A0834E0D695C7953A95E1F7CF70B8
:1013B0009C2FEC01D069D1CEC9E3D0E0CECEC2EEF5
:1013C000D0E0CBCEC6EED0E0C8CE80912F028823ED
:1013D00031F010922F0210922E0210922D020895D9
:1013E00080959091D70298239093D7020895809189
:1013F000D7029091D802892B90912C02892B80934F
:10140000C00180912F02882329F10E94BC05209100
:101410002D0230912E02821B930B8838934110F0DD
:101420000E94E5098091C00190912F02892B809341
:10143000C00180912B01882341F18091960387FFA1
:1014400024C08EE1E2ECF1E090E0815000F59111D2
:101450000E94E509E0918D03F0918E033097E1F051
:1014600080912B01882359F08091960387FF07C054
:101470008091C0018093C10185E08093C00102800A
:10148000F381E02D80EC91E0099486E0DBCF21919F
:101490002223D9F29F5FD9CF0895EF92FF920F9345
:1014A0001F93CF93DF93EC018A85811139C0EB80C4
:1014B000FC8087E5F81A26E12E9DC0012F9D900D36
:1014C0001124DC01A552BD4F1496ED91FC911597A6
:1014D000309731F054966D917C918F519D4F0995C5
:1014E00086E18E9D80018F9D100D112405521D4FA8
:1014F000F80187810E94F009F8018085982F909566
:101500008091D80289238093D8020E94F70918821B
:1015100019861B861E821D821092DA021092D90251
:10152000DF91CF911F910F91FF90EF900895CF938E
:10153000DF93EC01898981111BC081E0898B809147
:10154000D7029F81892B8093D7028091D8029885FA
:10155000892B8093D8020E94F709EA81FB8130979A
:1015600039F06C897D89CE010696DF91CF9109947F
:10157000DF91CF91089510922B0210922A021092BF
:10158000290208958091280281111092280208955D
:1015900090912B019923D1F09091960397FF16C05B
:1015A000E82FE695E695E695EE31E0F4F0E0E054BC
:1015B000FE4F282F277081E090E001C0880F2A9508
:1015C000EAF780959281892382830895E2ECF1E025
:1015D0009191891303C0DF0111971C9291E0E83CBF
:1015E000F907B1F7089590912B019923C1F09091DB
:1015F000960397FF14C0E82FE695E695E695EE3141
:10160000F8F4F0E0E054FE4F877021E030E001C0D4
:10161000220F8A95EAF78281822B82830895A2ECB9
:10162000B1E0EFEF90E02D91821751F0EF3F19F408
:10163000211101C0E92F9F5F9630A9F7EF3F09F410
:1016400008950E2E000CFF0BE054FE4FE6CF809164
:1016500027029091F601981301C008958F5F87705B
:10166000FACF9E3F51F1292F220F220FE22FE90FCF
:10167000E80F9E2F9770E695E695E69583E0E89F44
:10168000F0011124EF51FE4F50E040E080E0219145
:1016900030E0092E02C0369527950A94E2F72170B2
:1016A0003327042E01C0220F0A94EAF7822B4F5FE2
:1016B0005F4F4330510559F7089580E008959E3FEC
:1016C00071F1292F220F220FE22FE90FE80F8E2F41
:1016D000877041E001C0440F8A95EAF7E695E695E8
:1016E000E69583E0E89FF0011124EF51FE4F30E0D2
:1016F00020E070E05191DF011197CB01022E02C072
:10170000969587950A94E2F78170819585278423C1
:1017100085278C932F5F3F4F2330310559F708956C
:1017200090E080E00E94DE0590E080E00E94C80525
:101730001092D80210922C020E94F70986E0E2E78C
:10174000F2E0DF011D928A95E9F710926C02109287
:101750006B0210926D020C94B9068093CA030C942C
:10176000900B8091CA03982F9670963019F4886078
:101770000C94AD0B877FFCCF21E030E001C0220F3D
:101780008A95EAF720958091CA0382230C94AD0BC9
:1017900090912B028095892380932B02282F27700C
:1017A00039F4282F082E000C330B9217130621F45E
:1017B0009091970392FF07C08595859585950E9426
:1017C000BC0B0C94BB0A089521E030E001C0220F4D
:1017D0008A95EAF78091CA03822B0C94AD0B909105
:1017E000970392FD10C098E0899F90011124622B0D
:1017F00060932B020E94E40B0E94BC0590932A0286
:101800008093290208950C94E40B809330020C9489
:10181000900B882341F080959091D8028923809382
:10182000D8020C94F7090895882339F09091D802D2
:10183000982B9093D8020C94F7090895882321F0EF
:101840000E94F0090C94F7090895882339F09091CB
:10185000D702982B9093D7020C94F7090895882308
:1018600009F452C0823871F40E94020681FF4CC014
:1018700089E30E94F30A0E94F70989E30E94C80ADB
:101880000C94F709833859F40E94020680FF3CC08B
:1018900083E50E94F30A0E94F70983E5EFCF8438BD
:1018A00059F40E94020682FF2FC087E40E94F30AC7
:1018B0000E94F70987E4E2CF9CEF980F913AF0F28B
:1018C00090E2980F983050F4877091E001C0990F22
:1018D0008A95EAF7892F0E94F009D2CF9BE5980FED
:1018E000933020F490E080E00C94DE0598E5980FAA
:1018F000973120F490E080E00C94C805803F20F000
:101900000E94D4060C94B90608959C013A952115BD
:101910003F4150F5FC01EE27F170BC016627727063
:10192000AC01442754709C012227387094FF0EC0EC
:1019300080E1EF2B09F480E0672B09F08062452BF2
:1019400009F08064232B89F08068089581E0EF2BF3
:1019500009F480E0672B09F08260452B09F0846070
:10196000232B19F08860089580E00895CF93DF93CA
:10197000EC010E942F0CCE010E94850C9E01205E7E
:1019800031092830310510F0CD2B21F4DF91CF91B2
:101990000C941E0CDF91CF910C94090C9091C00314
:1019A000943029F58093980370939A036093990378
:1019B0009093E9008FEF9091E800815095FD06C06B
:1019C00095ED9A95F1F700008111F5CF8091E8002F
:1019D00085FF0DC050E040E063E070E088E993E0EF
:1019E0000E9470048091E8008E778093E80008954B
:1019F000BC0184E00C94CE0CBC0183E00C94CE0CB2
:101A00009C0184E08093E9009FEF8091E800915071
:101A100085FD06C085ED8A95F1F700009111F5CF9F
:101A20008091E80085FF0CC050E040E066E070E087
:101A3000C9010E9470048091E8008E778093E800CD
:101A40000895CF93DF93EC0180912B018823B1F1AE
:101A50008091960387FF32C060E284E08093E900C2
:101A60008FEF9091E800815095FD06C095ED9A9515
:101A7000F1F700008111F5CF8091E80085FF1BC0D0
:101A800080912B0170E050E040E0811104C050E0F3
:101A900040E068E070E0CE010E9470048091E800B0
:101AA0008E778093E80080E2FE01AEE9B3E001901A
:101AB0000D928A95E1F7DF91CF91089568E081E07A
:101AC000CDCF81E08093E00080E28093D800109237
:101AD000C9008FE19EE40197F1F700C0000087E0A4
:101AE00090EBDC018093CE039093CF03A093D003BF
:101AF000B093D10388E19CE00FB6F894A895809349
:101B000060000FBE90936000FFCF8091BC0280FD0B
:101B10000AC0E3E8F2E0118210821282339652E0AA
:101B2000EC3BF507C1F73E9A38B13F7B28B1206402
:101B30004FB7F89483E892E0FC015191CF0168E03F
:101B400028B9000000C057FF38B9550F000000C089
:101B500000C000C038B900C06A9591F7F2E08C3B34
:101B60009F0751F74FBF8FE594E00197F1F700C051
:101B700000000895EF92FF920F931F93CF93DF938E
:101B80008C01C3E8D2E0F12CE12CF8019481609142
:101B9000BE028091BD02F9E0EF16F104FCF4992336
:101BA000F9F09E014091BF020E9423062FEFE21A36
:101BB000F20A239683E1E816F10439F70E94850DB5
:101BC000F801848190E00196817099278483DF91E8
:101BD000CF911F910F91FF90EF900895992309F3F2
:101BE0009E0140E0E1CF8F929F92AF92BF92CF9241
:101BF000DF92EF92FF920F931F93CF93DF93EC014D
:101C00004C81042F10E09801D8010E940E319B01F5
:101C1000AC010E9424314B015C01E0E2F0E0E01BEA
:101C2000F10BA5E5B0E0AC019B010E9424316B01F2
:101C30007C019F01DF010E9406319B01AC010E94E3
:101C40002F319B01AC01280D391D4A1D5B1DC701B9
:101C5000B6010E94D730F22E822F90E039E23F1574
:101C6000D8F143E0249F9001112435952795122F38
:101C7000109593E8C92E92E0D92E00E085E5E82E74
:101C8000EF188E2D01FD8F2D9601412F6091BE0220
:101C90000E9423060F5F53E0C50ED11C033189F764
:101CA0000E94850D9C8181E0992319F0903219F4EE
:101CB0008FEF8093280180912801890F8C83DF9119
:101CC000CF911F910F91FF90EF90DF90CF90BF9039
:101CD000AF909F908F90089525E530E0A901481BB3
:101CE000590BCA019A01220F331F280F391F37FFE2
:101CF000BCCF2F5F3F4FB9CF0F931F93CF93DF938D
:101D0000C3E8D2E0FE01118210821282339682E093
:101D1000EC3BF807C1F710E000E080918102082E4B
:101D2000000C990B081719078CF180912701082ED8
:101D3000000C990B801791074CF19E014091BF0256
:101D40006091BE028091BD020E9423060F5F1F4F6B
:101D500023960331110509F70E94850D8091260114
:101D600090918102980F9093810220912701280F72
:101D700020932701121614F492311CF08195809360
:101D80002601DF91CF911F910F910895198218823A
:101D90001A82DCCFBF92CF92DF92EF92FF920F9325
:101DA0001F93CF93DF93FC018281DD24DA9480FDC1
:101DB00002C0DD24D39403E812E0D0E0C0E023E1C8
:101DC000B22EF80111821082128294E0E92EF12CD9
:101DD000C12C809180028C0D84310CF43DC06B2DA0
:101DE0000E94A130892F082E000C990B8C179D079B
:101DF00091F48091BF028E9DA0018F9D500D112402
:101E0000559547955595479598016091BE028091EB
:101E1000BD020E942306CD0CF1E0EF1AF108C9F6CD
:101E200021960D5F1F4FC331D10559F60E94850DD4
:101E30008091800291E0D91215C0811111C082E118
:101E400080938002DF91CF911F910F91FF90EF90CF
:101E5000DF90CF90BF90089587FFC5CF8D5EC3CF31
:101E60008150EECF90E00196BE010E94C330E8CFD2
:101E7000EF92FF921F93CF93DF93EC0183E8E82E5C
:101E800082E0F82E10E08C8197014091BF026091B2
:101E9000BE02810F0E942306135F83E0E80EF11C4F
:101EA000173F89F70E94850D9A818C8190FF08C0A9
:101EB0008F5F8C83DF91CF911F91FF90EF900895FA
:101EC0008150F7CF9091BC0290FF0CC0E3E8F2E0A4
:101ED000818360834283339692E0EC3BF907C1F73C
:101EE0000C94850D08950F931F93CF93DF9300D02B
:101EF0000F92CDB7DEB78C018091820281110AC0AA
:101F00009E012F5F3F4F4FEF6FEF0E9423068A81A4
:101F100080938202F8016481613069F080918202CD
:101F200040E0662361F040E0623011F440918202AB
:101F300080E060E004C06091820240E080E00E94A6
:101F4000620FF801848190E0019663E070E00E94E6
:101F5000C33084830F900F900F90DF91CF911F912A
:101F60000F910895CF93DF9300D00F92CDB7DEB7D6
:101F70009091BC0290FF0AC09E012F5F3F4F0E94CC
:101F800023064B8169818A810E94620F0F900F9016
:101F90000F90DF91CF910895CF93DF93EC01ECEB9D
:101FA000F2E0438162818C810E94B20F8C818F5F4D
:101FB0008C83DF91CF910895CF93DF93EC01EC8177
:101FC000F0E0EF51FB4F4491ECEBF2E06281818154
:101FD0000E94B20F8C818F5F8C83DF91CF91089527
:101FE000CF93C82F882309F4AEC08238C1F40E9471
:101FF000020681FDA8C089E30E94F30A0E94F70946
:102000002FEF81EE94E0215080409040E1F700C036
:10201000000089E30E94C80ACF910C94F709833825
:10202000A1F40E94020680FD8EC083E50E94F30A9F
:102030000E94F7092FEF81EE94E0215080409040FC
:10204000E1F700C0000083E5E5CF8438A1F40E94E9
:10205000020682FD78C087E40E94F30A0E94F70915
:102060002FEF81EE94E0215080409040E1F700C0D6
:10207000000087E4CFCF8CEF8C0F813A88F58091F8
:102080002B01882301F18091960387FF1CC0EC2F60
:10209000E695E695E695F0E0E054FE4F828190E00B
:1020A0004C2F477021E030E002C0220F331F4A95C9
:1020B000E2F782239323892B79F08C2F0E94C80AA0
:1020C0000E94F70909C0E2ECF1E08191C817A9F379
:1020D00021E0E83CF207C9F78C2F0E94F30A9CCF5D
:1020E00080E28C0F883068F4C77021E030E001C0D6
:1020F000220FCA95EAF78091D702822B8093D702EC
:102100008BCFEBE5EC0FE33040F4F0E0EC5CFE4FFE
:10211000808190E0CF910C94DE05E8E5EC0FE7318B
:1021200050F4F0E0EE0FFF1FE95CFE4F80819181DB
:10213000CF910C94C805C03F30F08C2F0E949907B6
:10214000CF910C94B906CF9108951F93CF93DF934D
:10215000182FCAE0D0E0893311F4C0E5D0E0812F18
:102160000E94F00F8FE99FE00197F1F700C0000097
:102170002197C1F7812FDF91CF911F910C942F0CE4
:102180000F931F93CF93DF93C62FD42F022FFC0101
:1021900082818823A1F06093CD030E94BC059093B7
:1021A000CC038093CB03C77081E001C0880FCA9530
:1021B000EAF7DF91CF911F910F910C94250C80913C
:1021C000CD03681335C08091CB039091CC030E945E
:1021D000AD05883C910560F510E21D0FCD17B9F0F3
:1021E00080E28C0F883040F4C77081E001C0880F16
:1021F000CA95EAF70E941E0C183048F481E09D2F22
:10220000977001C0880F9A95EAF70E94250C802FDD
:102210000E94A510183098F4D77081E001C0880F93
:10222000DA95EAF7DF91CF911F910F910C941E0C74
:10223000C77081E001C0880FCA95EAF7F3CFDF913C
:10224000CF911F910F910895CF93DF93EC010E94DE
:10225000850C9E01205E31092830310510F0209751
:1022600039F40E94250C8C2FDF91CF910C94F00F44
:102270000E94140CF8CFAF92BF92CF92DF92EF92F0
:10228000FF920F931F93CF93DF93EC018AE0A82E68
:102290002881222309F48CC02130C9F599818A81D3
:1022A000913021F422960E94A51005C0923029F4A5
:1022B00022960E94F00F2196EBCF933021F42296C4
:1022C0000E942F0CF8CF943011F02196F4CF229673
:1022D00030E020E0AE014F5F5F4F8053990B8A30B2
:1022E000910550F02150310930F38FE99FE00197BB
:1022F000F1F700C00000F6CFA29EB001A39E700DC2
:1023000011249C01260F371F8981EA01E3CFE22FB8
:10231000F0E0E650FE4FB490822F86958695869524
:1023200090E0FC01E651FE4FE4902770F12C022E64
:1023300002C0F594E7940A94E2F731E0E322FF2427
:10234000FC01E652FE4FC490D12C022E02C0D5945F
:10235000C7940A94E2F731E0C322DD24FC01E6537E
:10236000FE4F049110E002C0159507952A95E2F7FB
:1023700001701127E114F10419F081EE0E94F00FB1
:10238000C114D10419F086EE0E94F00F8B2D0E942B
:10239000A510CD2819F086EE0E942F0CEF2819F019
:1023A00081EE0E942F0C012B09F485CF8CE27BCFAC
:1023B000DF91CF911F910F91FF90EF90DF90CF9021
:1023C000BF90AF90089598E020E83AE03A95F1F791
:1023D00000C05B98382F322351F02A9A3AE03A95A0
:1023E000F1F700C05B9A2695915079F708952A98E5
:1023F000F5CF5A982AE02A95F1F700C00E94E31120
:1024000085E38A95F1F700002A9A98E080E02AE0B7
:102410002A95F1F700C05B982AE02A95F1F700C0F1
:102420005B9A23B123FB222720F9880F822B91503E
:1024300071F79AE09A95F1F700C05A9A0895CF93F0
:1024400080E00E94F911813129F090E0C0E08C2FEA
:10245000CF91089580EA8A95F1F782E00E94F91100
:1024600087FFF3CF80EA8A95F1F783E00E94F911A4
:10247000C82F80EA8A95F1F784E00E94F911982F1D
:10248000E6CFCF93DF93CFE8D1E060E0CE010E94AA
:1024900091312196C11584E0D807B9F7DF91CF912A
:1024A00008950F931F93CF93DF938901843048F5EC
:1024B000673038F5453028F521153C4531F4209139
:1024C000290130912A01232BE1F0C42FD0E0CC0F59
:1024D000DD1F9AE0699FC00DD11D112496E4899FEC
:1024E000C00DD11D1124612FCE0187960E9491311C
:1024F000602FCE018896DF91CF911F910F910C94A0
:102500009131DF91CF911F910F910895CF93C82FF3
:102510006FEF81116BE383E290E00E9491316FEFE6
:10252000C1116BE884E290E00E9491316FEFC1111C
:1025300065ED85E290E0CF910C949131CF93C091FD
:102540009703C2FB992790F9981781F080FBC2F995
:10255000C09397036091960384E090E00E949131CC
:102560006C2F82E290E0CF910C949131CF9108953D
:102570007F928F929F92AF92BF92CF92DF92EF9213
:10258000FF920F931F93CF93DF93CDB7DEB72A97B8
:102590000FB6F894DEBF0FBECDBFA0902901B0905A
:1025A0002A0181E090E090932A018093290181EE35
:1025B000C82E85E0D82E00E0760110E015C0F401A9
:1025C00025913491472D612F802F0E94511282E076
:1025D000880E911C739485E07812F1CF8AE0E80EA2
:1025E000F11C1F5F173019F04701712CE8CF0F5F06
:1025F00086E4C80ED11C0430F9F61A8219821C82B6
:102600001B821E821D8218861F8288EC90E09A87AA
:1026100089870FE311E04AE050E0B801CE0101964E
:102620000E94B531065F1F4F0F3881E0180799F7F8
:10263000B0922A01A09229012A960FB6F894DEBF23
:102640000FBECDBFDF91CF911F910F91FF90EF9003
:10265000DF90CF90BF90AF909F908F907F90089524
:1026600080E00E94861260E086E290E00E94913154
:102670000E94B8120E94411281E00C9486129B01C4
:10268000883070F49AE0899FB0011124615C7E4F1C
:102690004AE050E0C9010E946D3190E080E0089569
:1026A0008FEF9FEF08958F929F92AF92BF92CF923C
:1026B000DF92EF92FF920F931F93CF93DF93CDB7EB
:1026C000DEB72A970FB6F894DEBF0FBECDBF0BED75
:1026D00012E0F12CE12C83E1C82E84E2D82E9DE398
:1026E000A92E94E2B92E2CE7822E23E2922EF80135
:1026F000D182C082B382A28295828482F58AE48AE2
:10270000BE016F5F7F4F8E2D0E943F13892B29F4EE
:1027100089859A85F801938B828BFFEFEF1AFF0A68
:102720000A5E1F4F88E0E816F10409F72A960FB6F3
:10273000F894DEBF0FBECDBFDF91CF911F910F91F7
:10274000FF90EF90DF90CF90BF90AF909F908F90D1
:1027500008950F931F93CF93DF93843030F5673044
:1027600020F5453010F5C42FD0E0CC0FDD1F2AE056
:10277000629FC00DD11D112436E4839FC00DD11D71
:102780001124CE0187960E947D31082F10E0102F72
:102790000027CE0188960E947D319801282BC9011F
:1027A000DF91CF911F910F91089590E080E0F8CFD5
:1027B000462F2091D5023091D602232B91F47E3FF3
:1027C00039F46E3F71F48091D3029091D402089550
:1027D000843038F4773028F4653018F4672F0C947F
:1027E000A91390E080E00895CF92DF92FF920F93BB
:1027F0001F93CF93DF936C010091CA038091300245
:10280000082BC7E0D0E010E0FC2EC8010C2E02C05F
:10281000959587950A94E2F780FD0CC02197A0F763
:10282000F12C8F2DDF91CF911F910F91FF90DF90B1
:10283000CF900895B6018C2F0E94D8130E945D0896
:10284000019761F3EECFCF93DF93EC010E94F41375
:10285000BE010E94D813DF91CF910C945D08FC015A
:10286000808191810E942314292F2F7092959F704F
:1028700092509E3078F4E92FF0E0E359FC4C0C9430
:10288000F930803F19F020F4883E20F481E008956B
:10289000843FE1F380E00895883EC0F3813FD1F7A3
:1028A000F5CF822F869586958695089583E290E0F0
:1028B0000E947D318B3389F484E290E00E947D3167
:1028C0008B3859F485E290E00E947D3191E0853D9E
:1028D00009F090E0892F8170089580E0FCCFCF93BC
:1028E00084E090E00E947D31C82F82E290E00E9457
:1028F0007D31982F8C2FCF910895CF92DF92EF9258
:10290000FF926B017C010E941406B701A60188E0CA
:1029100090E0FF90EF90DF90CF900C94A3315F9206
:102920006F927F928F929F92AF92BF92CF92DF92DF
:10293000EF92FF920F931F93CF93DF9300D00F92EC
:10294000CDB7DEB7182F762E042F622E9091BC02E1
:1029500090FF29C0E92FE695AE2FB0E0A757BE4FF4
:102960008C9180937E029E7F923081F59E012F5F35
:102970003F4F812F0E9423064B8169818A810E94EB
:10298000620F1093BD027092BE020093BF026620D8
:1029900051F06091BC027091BD028091BE02909195
:1029A000BF020E947D140F900F900F90DF91CF9186
:1029B0001F910F91FF90EF90DF90CF90BF90AF905D
:1029C0009F908F907F906F905F900895823019F460
:1029D0000091BF02D6CF863019F41091BD02D1CF3D
:1029E0008930D9F3893169F6E9518E2F8170582EDB
:1029F000E695F0E0E452FB4FA590B490BB2483E849
:102A0000E82E82E0F82ED12CC12C93E1892E912C56
:102A1000C601B4010E94AF30812F511013C0860F40
:102A20009701402F672D0E942306CA0CDB1C83E010
:102A3000E80EF11C8CEBE81682E0F80649F70E94DC
:102A4000850D9FCF861BECCFECEBF2E0438128E0B5
:102A5000421B08F440E021E0628181810C948F14D4
:102A6000ECEBF2E0438128E0420F08F44FEF21E065
:102A7000628181810C948F14ECEBF2E0628128E09A
:102A8000621B08F460E021E0438181810C948F1483
:102A9000ECEBF2E0628128E0620F08F46FEF21E0D6
:102AA000438181810C948F14ECEBF2E0818121E071
:102AB0004381628188500C948F14ECEBF2E08181A9
:102AC00021E043816281885F0C948F148091C00261
:102AD000882319F081508093C0026091BC027091EC
:102AE000BD028091BE029091BF020C947D14809132
:102AF000C002833018F48F5F8093C0026091BC02E3
:102B00007091BD028091BE029091BF020C947D1421
:102B10009091BC0290FF3DC09170811129C09260DC
:102B20009093BC02662351F06091BC027091BD028B
:102B30008091BE029091BF020E947D146091BC0200
:102B4000669570E04BE050E08BE191E00E944C31E3
:102B5000892BA9F010927F0281E080937B0220E014
:102B60004091BF026091BE028091BD020C948F140F
:102B7000853210F09864D4CF880F982BD1CF81E0A4
:102B800080937F020E94BC05909379028093780223
:102B9000E3CF08958091BC028695815009F484E2C8
:102BA00061E00C9488158091BC0286958F5F853218
:102BB00008F081E061E00C9488159091BC0290FFD0
:102BC00007C09695981720F0961710F40C94D3151B
:102BD00061E00C948815ECEBF2E083E080831182D5
:102BE0008FEF8283838314826081718182819381DC
:102BF0000C947D141092D70280912B01E2ECF1E04D
:102C0000882359F08091960387FF07C08EE1DF018A
:102C10001D928A95E9F70C94900B86E0F8CF1F93EC
:102C2000CF93DF93CDB7DEB7AA970FB6F894DEBF88
:102C30000FBECDBF82EC93E02091F100DC012D931B
:102C4000CD01B3E08A3C9B07B9F78091C303833081
:102C500009F471C0B8F4813009F448C0823009F435
:102C6000B2C08091E80083FF3AC18091C203909185
:102C7000C3039A3008F033C1E92FF0E0E558FC4C6B
:102C80000C94F9308A3009F48DC08B3009F470C08F
:102C9000893039F78091C203813219F78091C603D8
:102CA0009091C703009711F00297D9F68091E80040
:102CB000877F8093E8008091E80082FF37C0909181
:102CC000F3008091F200029729F48091F1008B7F4C
:102CD000813021F48091F10080939D038091E80080
:102CE0008B778093E8000E949A04BBCF8091C20347
:102CF000813A09F0B6CF8091E800877F8093E800A1
:102D00008091C6039091C703892B61F460E28EE93C
:102D100093E070E00E944C058091E8008B778093EF
:102D2000E8009FCF60E090E080E0F3CF8091C003A7
:102D30008111C1CF96CF8091C203813A09F091CF22
:102D40008091C6039091C703892B09F08ACF8091A7
:102D5000E800877F8093E8008091E80080FFFCCF47
:102D600080912B018093F1008091E8008E77B9CF9C
:102D70008091C203813209F074CF8091C603909193
:102D8000C703892B09F06DCF8091E800877F80937E
:102D9000E8000E949A048091C40380932B010E9452
:102DA000FA155FCF8091C203813209F05ACF80912A
:102DB000E800877F8093E8000E949A048091C50311
:102DC00080939C034ECF8091C203813A09F049CF92
:102DD0008091E800877F8093E8008091E80080FF81
:102DE000FCCF80919C03BECF803899F0823809F0E7
:102DF00076C08091C6038F70873008F070C08093D2
:102E0000E9008091EB0085FB882780F91092E900AA
:102E100006C08091BE039091BF0391118260909192
:102E2000E800977F9093E8008093F1001092F10002
:102E30008091E8008E77C0C1882309F4ADC182304B
:102E400009F04DC08091C4038111B1C18091C603C6
:102E50008F702FEF280F263008F041C08093E900D3
:102E60002091EB0020FFA3C1933031F48091EB005F
:102E700080628093EB009BC19091EB0090619093F6
:102E8000EB0021E030E001C0220F8A95EAF72093A1
:102E9000EA001092EA008091EB008860EACF81118D
:102EA0001EC01091C4031F778091E3008078812BAE
:102EB0008093E3008091E800877F8093E8000E9480
:102EC0009A048091E80080FFFCCF8091E300806845
:102ED0008093E30082E0111183E08093C00380912E
:102EE000E80083FF0AC08091E800877F8093E800B4
:102EF0008091EB0080628093EB00AA960FB6F89465
:102F0000DEBF0FBECDBFDF91CF911F9108958058D6
:102F1000823028F72091C4033091C5032C3DE3E0B3
:102F20003E07A1F583E08A838AE289834FB7F8944C
:102F3000DE01139620E03EE051E2E32FF0E05093F3
:102F40005700E49120FF03C0E295EF703F5FEF7000
:102F50008E2F90E0EA30C0F0C7968D939D932F5F3F
:102F6000243159F74FBF8091E800877F8093E800B4
:102F70006AE270E0CE0101960E944C058091E80063
:102F80008B778093E800ABCFC096E7CF8091C603E4
:102F90009091C703432F55274330510509F44AC088
:102FA00078F54130510509F485C08BE590E0E9EFF3
:102FB000F6E04230510509F092CF2091E800277FDA
:102FC0002093E8002091C8033091C903821793072A
:102FD00008F49C0140E02115310509F070C0411151
:102FE0006EC08091E80082FDC9CF8091C003882324
:102FF00029F2853019F28091E80083FFF2CFBECF2D
:103000004132510509F447C04232510509F067CFFA
:103010008330910508F063CFFC01EE0FFF1FEF54E2
:10302000FE4F0190F081E02D82559E4FDC018C9186
:1030300090E01DC0332721303105E9F0211531051D
:1030400079F022303105F9F02330310509F047CF0E
:10305000E6E6F7E0E4918E2F90E0E6E6F7E007C0C1
:10306000EAEAF7E0E4918E2F90E0EAEAF7E00097D1
:1030700009F435CFA2CFE4E9F7E0E4918E2F90E098
:10308000E4E9F7E0F4CFE4E8F7E0E4918E2F90E094
:10309000E4E8F7E0ECCF8330910508F020CF880F0B
:1030A000991FFC01E954FE4F0190F081E02D89E069
:1030B00090E083CF82E190E0E4E5F7E07ECF80917D
:1030C000C003882309F45ACF853009F457CF809183
:1030D000E80083FD53CF8091E80082FD82CF80918C
:1030E000E80080FF78CF9091F3008091F2002115E5
:1030F000310519F08830910550F041E0089709F04A
:1031000040E08091E8008E778093E80064CF44919E
:103110004093F1003196215031090196E8CF803873
:1031200009F0DDCE8091E800877F8093E8008091F0
:10313000C1038093F1007CCE8111D1CE1091C403E4
:10314000123008F0CCCE8091E800877F8093E800B1
:103150001093C1030E949A04112311F084E005C06A
:103160008091E30087FDFACF81E08093C00342E0C5
:1031700061EC81E00E94B90442E261EC84E00E94CB
:10318000B90442E261EC82E00E94B90442E260ECE0
:1031900083E00E94B904A3CE8091C403813009F07A
:1031A0009ECE81E0933009F080E08093BF031092BF
:1031B000E9008091E800877F8093E8000E949A04EC
:1031C0008ECE6AEE7EEF90E080E00E94AF3160E04C
:1031D00082E090E00E94913160E083E090E00E9404
:1031E00091311092300260E084E090E00E949131D1
:1031F00060E082E290E00E94913160E085E090E042
:103200000E94913160E086E090E00E9491316FEF82
:1032100087E090E00E94913140E050E0BA0188E000
:1032200090E00E94A33160E08DE090E00E94913137
:1032300040E050E0BA0188E190E00E94A33160E0F4
:1032400087E190E00E94913140E050E0BA018CE1CA
:1032500090E00E94A33170E060E080E290E00E9484
:10326000AF3140E050E0BA0188E190E00E94A33124
:1032700080E00E9486120E94301340E050E0BA01C4
:103280008FE090E00E94A33140E050E0BA0183E17A
:1032900090E00C94A3319F92AF92BF92CF92DF92B5
:1032A000EF92FF920F931F93CF93DF9300D000D044
:1032B0000F92CDB7DEB76C0185E0F601DE01119605
:1032C00001900D928A95E1F7D60112962C91898191
:1032D0009A81222309F4F9C00E94F413182F682F51
:1032E00089819A810E945F0B69817A81812F0E9476
:1032F000D8138C01F60182818111EBC0D6011296A0
:10330000FC90F11024C100314FE5140709F4A7C166
:1033100001315FE5150709F4B9C1780147E5F41AF1
:103320005FEFE516F10409F060F569EC72E08E2DAF
:103330000E943F13892B29F586E18E9DF0018F9D18
:10334000F00D1124E552FD4F8681813009F0A0C1B6
:103350008091C9029091CA02892B99F08091CB0289
:103360009091CC02892B69F08091CD029091CE0290
:103370002091CF023091D002822B932B892B09F41C
:1033800091C10031110509F49BC102362DE51207E8
:1033900009F4A1C1C80197558F3F910511F008F0BC
:1033A000ABC120911001022E000C330B28173907F6
:1033B00014F480931001D60112962C91129736E1E5
:1033C000389F5001399FB00C1124F501E552FD4F93
:1033D0007F01208B12969C918681992309F47FC1ED
:1033E000128701878F5F86830E94BC05D7011E96D6
:1033F0009C938E931D9780912F0217968C9317970D
:103400008091D8029091D702892B18968C931897A7
:10341000ED91FC911197309739F054966D917C9114
:10342000C5018F519D4F09951093DA020093D9027F
:10343000F601F280FF2009F41DC31092CD03023083
:10344000FCE51F0708F46BC206312CE5120730F0CB
:10345000C8018A5F9C45099708F061C20E946F14F9
:10346000909397038093960300314CE5140709F479
:1034700025C208F0B8C108308CE5180709F414C259
:1034800008F087C10430ACE51A0709F405C208F05A
:103490006DC10230ECE51E0709F4F8C18091960376
:1034A000826003301C4509F4F4C1609196031091C9
:1034B000970384E090E00E949131612F82E290E0D6
:1034C0000E9491310E94FA15C8C00E94310B182F3A
:1034D0000BCF809110018F3F09F410CF9BEDE92EA7
:1034E00092E0F92EB12CA12C992493948091100193
:1034F000082E000C990B8A159B050CF4FFCEF701E2
:1035000086818823E9F0818592850817190739F4A7
:103510008091D9029091DA020817190789F0D70132
:103520001F969C921F971C961C930E931B97C70186
:103530000E94970AC70106960E944D0A1092D8026F
:10354000BFEFAB1ABB0AE6E1EE0EF11CCFCFC8010C
:1035500082519F45409708F081C28FEF93E00E940F
:103560007D3181117AC08EEEF82EF00E0FE811E059
:10357000F11036C019821A821B821C82BB24BA94B5
:1035800078012FEFE21AF20AC8010E947D31898387
:103590001A82882309F461C0813009F053C06801A0
:1035A00042E0C40ED11CC7010E947D31E82E8A83FF
:1035B000882309F452C0C6010E947D31F82E8FEF96
:1035C0008E0D8330D0F4680153E0C50ED11CFB8210
:1035D000FF2021F0CE0101960E943B118601D0CF41
:1035E0000115F4E01F07C9F1C8010E947D31811166
:1035F00001C0FA940F5F1F4FBBCF84E0E812EECFFB
:10360000680194E0C90ED11CC80103960E947D3167
:10361000FF2019F1882309F18150990BB89E900180
:10362000B99E300D1124AF2DA150BB0BCD01820FDF
:10363000931F019798F2EFE9FFE03197F1F700C08F
:103640000000F7CFCE0101960E943B116701C6CF63
:1036500081E00E94E40B0E94B10BF12C05C081E0D7
:103660000E94BC0B0E94B10B8F2D0F900F900F90FA
:103670000F900F90DF91CF911F910F91FF90EF90DE
:10368000DF90CF90BF90AF909F90089582E0E8CFF9
:10369000823009F076CE8091CD029091CE02892BB6
:1036A00009F46FCE26E12E9DC0012F9D900D1124AF
:1036B00085529D4FDC0150961C920E94970A6ACE5B
:1036C000F601F280FF2081F28091580291E0892773
:1036D00080935802C2CF86E00E94A5105BCE88235B
:1036E00009F4A6CE8189882309F4A2CEC5018F51A1
:1036F0009D4F0E944D0A9CCE033FFCE51F0739F108
:1037000088F4083D4CE51407F1F0093D5CE5150728
:1037100051F1073D8CE5180709F08ACE26E241EE0B
:1037200061EE0DC0053F9CE51907C9F0A0F027E246
:1037300045EE66EE063FBCE51B0709F079CEC601F3
:103740000E94C0108ACF27E245EE65EEF8CF26E250
:1037500041EE60EEF4CF27E245EE64EEF0CF26E2D4
:1037600041EE62EEECCF28E241E0EFCF809196038C
:10377000806106302CE5120709F48BC08091960316
:10378000886007301C4508F484C0809196038062ED
:1037900080C0809196038D7F0C305CE5150709F49D
:1037A00078C070F4809196038C600A309CE519070C
:1037B00009F46FC008F47CC0809196038E7F69C0C5
:1037C00080919603877F0E30BCE51B0709F461C02A
:1037D000809196038B7F0F301C4508F45AC080916E
:1037E00096038F7E56C00B3FFCE51F0709F458C0B7
:1037F00030F503314CE5140709F468C078F4013161
:103800008CE5180709F45EC002311C4509F04DCE65
:103810000E94FA15809196038F773BC00531ACE585
:103820001A0709F45BC008F46FC0809197038160A8
:103830000A3F1C4509F039CE8093970336CE0F3FDF
:10384000FCE51F0709F446C088F4809197038D7F3B
:103850000D3F4CE5140781F3809197038E7F0E3F57
:103860001C4550F3809197038360E6CF01308DE5CE
:10387000180709F452C0F0F160E002301D4509F06C
:1038800014CE8EE090E00E9491310FCE809196038D
:1038900081608093960309CE809196038460F9CF6E
:1038A000809197038260C8CF809196038064F1CFA6
:1038B0000E94FA15809196038068EBCF8091960361
:1038C0008F7DE7CF809196038F7BE3CF8091960326
:1038D000837FDFCF809197038C7FAECF809196035B
:1038E00082FB992790F921E0922790FB82F990FBC7
:1038F00083F9CFCF80919703982F909591708E7F09
:10390000892B90FB81F998CF0E94FA15909196032C
:10391000892F97FB87F98058BCCF61E0B2CF8091A7
:10392000D7020631BCE51B0709F0B2C08A7A91E0E4
:1039300009F490E09093E001811106C089E20E94B1
:10394000F30A0E94F70989CE85E3F9CF85E39DC08C
:103950008091BC0280FF1BC08E7F8093BC0260916F
:10396000BC027091BD028091BE029091BF020E9484
:103970007D1410927F02EFEFF0E722E0E150F0407B
:103980002040E1F700C000000E94850D66CE8160F6
:103990008093BC0261E086950E9488155ECE4AEC59
:1039A00055E163ED75E10E940E0657CE43ED55E1FA
:1039B0006AEC75E1F8CF4DE555E164E575E1F3CFCB
:1039C0004CE355E168E475E1EECF44E255E160E394
:1039D00075E1E9CF40E355E164E275E1E4CF47E703
:1039E00055E166E675E1DFCF61E081E0D5CF65E0C6
:1039F00082E00E94DD1531CE68E086E0FACF64E116
:103A00008FE0F7CF67E185E1F4CF62E289E1F1CFA2
:103A100061E083E2C1CF0B35ADE51A07E9F00C3563
:103A20001D4509F021CE8091970382FB882780F9FC
:103A300091E089270E949E1217CE0E94FA15EFEF9F
:103A4000F4E32CE0E150F0402040E1F700C000003A
:103A50000E94610D81E0EECF80E0ECCF00318FE578
:103A6000180709F4F5CD01319FE5190709F089CC54
:103A700082E0EFCDFF24F39406311C4509F0F4CD2C
:103A80008091E001811162CF89E20E94C80A59CF7A
:103A900082720C3CBCE51B0709F4A1CF08F055C0AD
:103AA000063CFCE51F0709F486CF60F5033C4CE5B6
:103AB000140709F474CFB8F4023C8CE5180709F434
:103AC00047CF0A354DE5140729F208F0A4CF0115B8
:103AD0008CE5180709F4B1CF0E3D1C4509F0C4CDA3
:103AE0000E94E118BACD043C9CE5190709F45ECFA9
:103AF00044E555E16DE575E1053CACE51A0709F4CF
:103B000052CFDFCF093CBCE51B0709F45ECF78F448
:103B1000073CFCE51F0709F453CF48E455E16CE38B
:103B200075E1083C2CE5120709F43DCFCACF0A3CE9
:103B30004CE5140709F44ECF0B3C5CE5150709F67C
:103B400046E655E167E775E12ECF013D8CE51807A4
:103B500009F455CFA0F40E3CACE51A0709F447CFA1
:103B600008F442CF0F3CECE51E0709F445CF6EE0A8
:103B700089E0003DFCE51F0709F43BCFA2CF043DDF
:103B80002CE5120709F441CF68F4023D5CE5150706
:103B900009F438CF033D8CE5180709F092CF61E0B6
:103BA00088E1FACE053D9CE5190709F431CF0D35C2
:103BB000100709F452CD85CF8F929F92AF92BF929A
:103BC000CF92DF92EF92FF920F931F93CF93DF93E9
:103BD000CDB7DEB762970FB6F894DEBF0FBECDBF8C
:103BE0005C01FC0183819481892B31F0808191817A
:103BF00089238F3F09F0AEC262960FB6F894DEBFFC
:103C00000FBECDBFDF91CF911F910F91FF90EF902D
:103C1000DF90CF90BF90AF909F908F900895F50167
:103C20008281008111818823E1F1C8010E94F4138F
:103C3000F82E682FC8010E945F0BB8018F2D0E94DB
:103C4000D8130E945D088C01882EF501E280D58092
:103C5000D2943FE0D32280912B028770A1F0CE2C2A
:103C6000EE2091F0812F807F803421F080E2800F60
:103C7000883048F082E00E94C80B80912B02877048
:103C8000CC24C3948111C12C912E92942FE09222C6
:103C9000FBE0F915E8F1E92DF0E0EB57FC4C0C9452
:103CA000F930C8010E94310BF82EC7CF212F2F7099
:103CB000F22E107F19F0F29490EFF922EE20C9F065
:103CC000FF2069F080E2800F883010F081100BC077
:103CD0008091D702F82AF092D7020E94F709802F2C
:103CE0000E94F00F15C08091D802F82AF092D802F5
:103CF000F4CF802F0E942F0CFF2051F0005E08307F
:103D000010F0811036C08F2D0E94F0090E94F70933
:103D1000E92DE850FF0B349710F40E940206CC20E6
:103D200009F46ACF80912B0280FD66CFF5011282E3
:103D30008595859585950E94E40BC5010E94DC1D43
:103D400080912B0285958595859562960FB6F8949E
:103D5000DEBF0FBECDBFDF91CF911F910F91FF90BE
:103D6000EF90DF90CF90BF90AF909F908F900C948A
:103D7000BC0BF0948091D802F822F092D802C6CF02
:103D8000312F3F70F32E107F103219F0F29480EF34
:103D9000F822882081F081E0881609F450C0EE20D6
:103DA00009F459C0DD2079F1F501858180FF97CFB5
:103DB0008F70858328C0EE2051F1D11004C080910E
:103DC0002F028F2921C091E0D91213C0809197034F
:103DD00082FD9ECF80912F02F82AF81609F498CF21
:103DE0000E94BC0590932E0280932D02F0922F0228
:103DF0008FCFE5E0DE12E3CF0E94E5098091280233
:103E0000F812F09228028F2D0E94250C81CFD1103C
:103E100006C00E94E5098F2D0E941E0C79CFF1E0AB
:103E2000DF1208C08091D7028F2109F471CF0E9460
:103E3000C20AEFCF25E0D21609F46ACFEACFEE200E
:103E400029F035E03D1508F463CFDDCF84E08D1512
:103E500008F45ECFE0CFDD20F1F2F9E38F120DC060
:103E60002FEF37EE83E0215030408040E1F700C073
:103E70000000802F0E942F0C4BCFEFE3FCE931971D
:103E8000F1F7F5CF812F86958695837061F08130AB
:103E900009F03ECFC8019370E11002C090E080E0CD
:103EA0000E94C80535CFC8019370E11002C090E0B0
:103EB00080E00E94DE052CCF802FEE20B9F10E9419
:103EC0009907045F110B05301105B0F581E090E012
:103ED00001C0880F0A95EAF726E0EEE4F2E0DE0181
:103EE000179601900D922A95E1F726E0FE0137968C
:103EF000DE011D9601900D922A95E1F72885EE20AE
:103F0000C1F0822B8E8786E0FE013D96DE01119680
:103F100001900D928A95E1F786E0FE013196AEE4BC
:103F2000B2E001900D928A95E1F7F2CE0E94D4069C
:103F3000C8CF80958223E6CF0E94B906E9CE812FB3
:103F4000837089F5E110E4CE402F42954695477085
:103F5000440F440F802F8F70042E01C0880F0A94E5
:103F6000EAF7202F207104FF07C02FE030E001C0E6
:103F7000220F4A95EAF72095169516951370123080
:103F800069F050F430913002113029F0822B8323F4
:103F90000E94050CBDCE832B822BFACF282B80915B
:103FA00030028227F5CF8695EE2011F0812F8170A7
:103FB000882309F4ADCE402F429546954770440FB3
:103FC000440F802F8F70042E01C0880F0A94EAF7E7
:103FD000202F207104FF07C02FE030E001C0220F26
:103FE0004A95EAF72095169516951370123069F0E8
:103FF00050F43091CA03113029F0822B83230E94A0
:10400000AD0B86CE832B822BFACF282B8091CA034F
:104010008227F5CF1F70EE2029F0812F0E94E40B3C
:10402000802FF2CE802F0E941E0C812F0E94BC0B8D
:104030006FCE802FF2EF8F1609F448C0F81570F09C
:1040400020EF821629F131EF8316C1F1EE2009F439
:104050006DC0D11044CE812F8F7135C093EF89167A
:10406000D1F1E4EF8E12F2CF80912802EE2009F414
:1040700049C00E94F00980912B0287708430B1F50D
:104080000E94BB0A812F8F710E94BC0BC12C40CEB5
:10409000EE2079F0F4E0FD1508F43ACE1F7181E0CE
:1040A00090E001C0880F1A95EAF79091CA0389271A
:1040B000A6CF25E02D1508F42BCEF0CF812F8F71E0
:1040C000EE2009F4B3CF0E94E40B22CE812F8F7132
:1040D000EE20C9F3ABCF80E0EE2009F490CF1F7142
:1040E00081E001C0880F1A95EAF789CF34E03D15C9
:1040F00068F21F71812F0E94E40B63E0812F0E9400
:10410000EF0BC4CF9091D702982B9093D70284E005
:104110008D1540F40E94BB0A0E94C20A64E0812F00
:104120008F71EDCF81E00E94C80BB0CFDD2079F018
:10413000893341F49FEFE7EEF3E09150E040F04027
:10414000E1F795CE8FE39CE90197F1F790CE812FAF
:104150008F716CCFC5010E944B19811160CD809188
:104160002B02877009F448CDF5018281882309F478
:1041700043CD82E062960FB6F894DEBF0FBECDBF8E
:10418000DF91CF911F910F91FF90EF90DF90CF9033
:10419000BF90AF909F908F900C94C80B1F93CF93BC
:1041A000DF938091F501807FA9F48091F20188234B
:1041B00089F080912702D091F6016091F001709111
:1041C000F101A091F301B091F401C62FC72316E0CD
:1041D000D81304C0DF91CF911F91089590E01097FC
:1041E00011F0CF3F19F401968770F2CF189F90011C
:1041F000199F300D1124F901E950FE4F41814713F9
:10420000F2CF40814613EFCF42814111ECCF438181
:1042100054814A1B5B0B483C510528F78091F501FE
:104220008F7080618093F501F901E450FE4F808129
:104230008F708061808380EF91E00E94DC1DDF91B0
:10424000CF911F910C94270BAF92BF92CF92DF9228
:10425000EF92FF920F931F93CF93DF93CDB7DEB70B
:1042600061970FB6F894DEBF0FBECDBF8C0185E01D
:10427000F801DE011D9601900D928A95E1F7F80193
:10428000E28080EFA82E81E0B82E6091F30170915A
:10429000F4016115710509F432C19091F00140916A
:1042A000F101892F84238F3F09F429C120813181B5
:1042B000C380D480F090F201F601E61BF70BFF20DB
:1042C00009F4E8C08091F501582F507FE83CF105D2
:1042D00008F0ABC0511177C0FE2C431321C09213DC
:1042E0001FC0E1101DC08F7080618093F501C50172
:1042F0000E94DC1D8091F501F80185838F2D619668
:104300000FB6F894DEBF0FBECDBFDF91CF911F91E6
:104310000F91FF90EF90DF90CF90BF90AF900895F6
:10432000CD2829F0822F83238F3F09F003C180E03D
:10433000F82FF170DF2E80FF3CC080912702409162
:10434000F60156E0841315C02D873E878D859E8526
:104350000E942314292F22952F702230F0F0243050
:1043600018F59F70F1F0F8019581907FD1F4D12C70
:104370001EC090E0589FF001599FF00D1124E950A4
:10438000FE4F6181361306C06081261303C062812F
:10439000E6120FC001968770D5CF9F7011F0882369
:1043A00031F3805E883018F3C8010E94DC1DFD2CBB
:1043B000A5CFEE2009F4A2CF8091F5018160809312
:1043C000F501F12C9BCF431306C0921304C0F801F2
:1043D000EE2009F479C0C8010E942F14882309F146
:1043E000EE20F9F08091F501803270F02091F0011B
:1043F0003091F10138872F831986DB86CA868C8736
:10440000CE0107960E94DC1D86E0F801A0EFB1E026
:1044100001900D928A95E1F70E94CE20FF24F3943B
:104420006DCFC8010E94DC1DF9CF51110AC080EF89
:1044300091E00E94DC1D86E0F50111928A95E9F772
:10444000C0CF43130FC092130DC0E1100BC0F80191
:104450008583C8010E94DC1D86E0F50111928A95D2
:10446000E9F74CCFC8010E942F148823D1F2EE2027
:10447000C1F28091F501803238F22091F001309143
:10448000F1013A8329831B82DD82CC828E83CE01A7
:104490000196B8CFE83CF105F8F6FE2CEE2009F2C3
:1044A00043131FC092131DC08091F50180FD10C001
:1044B000982F907F69F0F8018583903F31F0982F15
:1044C000907F905F8F70892B8583C8010E94DC1DCF
:1044D00086E0F801A0EFB1E001900D928A95E1F736
:1044E0000DCFC8010E942F1481118ECF8091F5014C
:1044F00081608093F501C8010E94DC1DFFCEEE2093
:1045000009F48FCFC8010E942F14F82E882309F4D4
:1045100088CF86E0F801A0EFB1E001900D928A9576
:10452000E1F78091F0019091F1010E9423140E9423
:10453000CE20E4CE81E08E25FBCE1F93CF93DF9378
:10454000CDB7DEB767970FB6F894DEBF0FBECDBF0D
:104550004B8B5C8B6D8B7E8B8F8B61111092D80295
:104560001A8A198A85E0FE017396DE011D96019074
:104570000D928A95E1F70E94BC05209129023091A5
:104580002A02821B930B8838934120F080912B02E2
:1045900082FF7FC00E94BC0520912D0230912E0227
:1045A000821B930B8838934110F00E94E50986E046
:1045B000FE013D96DE01179601900D928A95E1F776
:1045C000CE0107960E942421882389F016E080916D
:1045D00027029091F601891349C067960FB6F894A7
:1045E000DEBF0FBECDBFDF91CF911F91089586E052
:1045F000FE013796DE01119601900D928A95E1F742
:104600008A859B85892B11F38F81988589238F3F1C
:10461000E9F22091F60130E0C901019687709927EF
:10462000409127024817190671F40E94FA1510925A
:10463000F6011092270286E0E0EFF1E0DF011D9223
:104640008A95E9F7C3CF96E0929FD001939FB00D72
:104650001124A950BE4FFE01319601900D929A95FA
:10466000E1F78093F6010E94270BB0CF819FC00134
:10467000112489509E4F0E942421882309F4ADCF34
:104680008091270290E001968770992780932702F6
:104690009ECF82E00E94C80B7DCFCF93DF9300D0E6
:1046A00000D00F92CDB7DEB79093D4028093D3029F
:1046B000811520E2920748F40F900F900F900F9011
:1046C0000F90DF91CF910C94B60C8EEF89838A8383
:1046D0001B820E94BC058160782F9D838C83498159
:1046E0005A816B818D810F900F900F900F900F90DA
:1046F000DF91CF910C949D220F931F93CF93DF9363
:104700008C01EB0169EC72E08C2F0E943F13892B26
:10471000A1F48FE39CE90197F1F700C00000DD27C9
:10472000CF53DD4F8881F80110821882833009F160
:1047300048F4813059F0823081F0DF91CF911F91A0
:104740000F9108958430D1F08530B9F78091C90276
:104750009091CA02009789F306C08091CB02909194
:10476000CC02009799F3DF91CF911F910F910C9498
:104770004D238091CD029091CE02F3CF8091CF0254
:104780009091D002009779F72091C9023091CA0226
:104790008091CB029091CC0221153105D9F200977E
:1047A00011F7C901E0CFCF93DF9300D000D00F9273
:1047B000CDB7DEB79093D4028093D302811520E267
:1047C000920748F40F900F900F900F900F90DF9189
:1047D000CF910C9424118EEF89838A8381E08B839F
:1047E0000E94BC058160782F9D838C8349815A810A
:1047F0006B818D810F900F900F900F900F90DF9134
:10480000CF910C949D22CF93DF93EC010E94D32390
:104810008FE39CE90197F1F700C00000CE01DF9122
:10482000CF910C944D230F931F93CF93DF938C0163
:10483000862F69EC72E00E943F13892BC9F4C09166
:10484000C902D091CA02209799F0F8018081833083
:1048500069F4CE010E940324CE010E940324CE01FC
:10486000DF91CF911F910F910C9403248430B8F7FE
:10487000DF91CF911F910F9108950F931F93CF93C5
:10488000DF938C01EB0169EC72E08C2F0E943F13E7
:10489000892B09F064C0FE01FF27D8018C91EF53EA
:1048A000FD4F8130D9F419969C911997992311F0F5
:1048B00080830CC01A969C919923D1F382E0808367
:1048C0008091CB029091CC020097D9F48091C902DB
:1048D0009091CA02009709F442C013C08230E9F5F2
:1048E00019968C91199781112DC01A968C9181116E
:1048F0000EC083E080838091CD029091CE0200971C
:1049000019F1DF91CF911F910F910C94D32384E083
:1049100080838091CF029091D002009791F780918F
:10492000C9029091CA020097F9F00E940324809175
:10493000CB029091CC02009721F78091C90290910F
:10494000CA02DFCF85E080838091C9029091CA02BC
:10495000009729F00E940324F0CF86E08083DF9146
:10496000CF911F910F9108958091CB029091CC022D
:10497000B1CFCF92DF92EF92FF920F931F93CF931D
:10498000DF9300D000D000D0CDB7DEB7E82FF0E045
:10499000EE0FFF1FE60FF11DEE0FFF1FE050FF4F60
:1049A000008111810E94BC051E821D8209831A8329
:1049B00021E02B8381609D838C834091CA0350E06A
:1049C00070E060E0DB01CA01E4E0B695A795979539
:1049D0008795EA95D1F70097A105B10509F451C073
:1049E000AC01BD0184E06A017B0122E0F694E7940A
:1049F000D794C7942A95D1F7C114D104E104F104E6
:104A000019F08E5FB701A601769567955795479582
:104A1000452B462B472B09F08F5F402F612F0E94BB
:104A2000A9138C010297E8F0CE0101960E944B1960
:104A30008823B9F01B82CE0101960E944B1988236E
:104A400081F0011580E2180760F4C8010E9424116A
:104A50008FE39CE90197F1F700C00000C8010E94B4
:104A6000B60C81E026960FB6F894DEBF0FBECDBF20
:104A7000DF91CF911F910F91FF90EF90DF90CF903A
:104A8000089580E0B0CF9F92AF92BF92CF92DF9215
:104A9000EF92FF920F931F93CF93DF9300D000D03C
:104AA00000D00F92CDB7DEB78E010F5F1F4F87E0AA
:104AB000F80111928A95E9F795E6C92E91E0D92E71
:104AC000F12CE12CAA24A394B12CF60181916F0161
:104AD0008F3F09F449C0F894E82FE295EF70F0E0B9
:104AE00021A18F70A50102C0440F551F8A95E2F7DE
:104AF000CA01922F982B91A392A18095892382A31A
:104B0000789400C0ECE6F1E030E020E0912C419197
:104B10004F3F09F477C0A42FA295AF70B0E09096F4
:104B20008C9190E04F7002C0959587954A95E2F779
:104B300080FD68C08A2D022E01C0880F0A94EAF712
:104B4000982A2F5F3F4F2530310509F7F60131973D
:104B500080818F3F11F00E94030850EA5A95F1F7C7
:104B6000F801EE0DFF1D90828FEFE81AF80AE7E0DA
:104B7000EE16F10409F0A9CF47E050E0B80184E354
:104B800092E00E945931DD24D394009709F4D12C8E
:104B9000892BD1F187E0F801A4E3B2E001900D92F6
:104BA0008A95E1F781E0809333020E94BC059093DF
:104BB00032028093310280913102909132020E9440
:104BC000AD05059728F180913402809364028091AD
:104BD000350280936502809136028093660280914F
:104BE0003702809367028091380280936802809137
:104BF00039028093690280913A0280936A0210928E
:104C0000330206C080E09CCF809133028111D3CF64
:104C10008091100110E006E18F3F09F041C08D2D19
:104C200027960FB6F894DEBF0FBECDBFDF91CF91B0
:104C30001F910F91FF90EF90DF90CF90BF90AF90BA
:104C40009F900895029FF001039FF00D1124E552FB
:104C5000FD4FE288F388E114F10419F488ECE82EA2
:104C6000F12C029FF001039FF00D1124E552FD4F3E
:104C700086818823A1F0858596850E94AD05E8167A
:104C8000F90668F4109F70011124C70185529D4FE9
:104C90000E94970AC7018F519D4F0E944D0A1F5FC6
:104CA000212F30E080911001082E000C990B821703
:104CB000930744F6B4CF90E080E00E948B318A3EA7
:104CC0009E4F11F40C94561480E008951F920F9299
:104CD0000FB60F9211242F933F934F935F936F93CF
:104CE0007F938F939F93AF93BF93CF93DF93EF9374
:104CF000FF93D091E900DF708091EC00C82FC17064
:104D000080FDC0E81092E9008091F000877F8093D9
:104D1000F00078940E940F161092E9008091F00044
:104D200088608093F000CD2BCF70C093E900FF9195
:104D3000EF91DF91CF91BF91AF919F918F917F9133
:104D40006F915F914F913F912F910F900FBE0F90F8
:104D50001F9018951F920F920FB60F9211242F9348
:104D60003F934F935F936F937F938F939F93AF93F3
:104D7000BF93EF93FF938091E10082FF09C0809180
:104D8000E20082FF05C08091E1008B7F8093E1000B
:104D90008091DA0080FF24C08091D80080FF20C07D
:104DA0008091DA008E7F8093DA008091D90080FFB5
:104DB0009BC080E189BD82E189BD09B400FEFDCFC1
:104DC00081E08093C00380919B03811109C00E9400
:104DD00020040E94EB048091E20084608093E20052
:104DE0008091E10080FF17C08091E20080FF13C036
:104DF0008091E2008E7F8093E2008091E2008061EA
:104E00008093E2008091D80080628093D80019BC22
:104E100085E08093C0038091E10084FF29C08091E8
:104E2000E20084FF25C080E189BD82E189BD89B5AA
:104E3000982F917080FFFBCF8091D8008F7D809359
:104E4000D8008091E1008F7E8093E1008091E200A4
:104E50008F7E8093E2008091E20081608093E20087
:104E60008091C103882309F445C084E08093C00386
:104E70008091E10083FF27C08091E20083FF23C07F
:104E80008091E100877F8093E10082E08093C003FE
:104E90001092C1038091E1008E7F8093E1008091A8
:104EA000E2008E7F8093E2008091E2008061809337
:104EB000E20042E060E080E00E94B9048091F000EE
:104EC00088608093F000FF91EF91BF91AF919F9127
:104ED0008F917F916F915F914F913F912F910F90A3
:104EE0000FBE0F901F90189519BC1092C00310921E
:104EF0009B0376CF8091E30087FD93E09093C003FE
:104F0000B7CF78941F921FB61F9211248F939F934F
:104F1000AF93BF938091920390919303A0919403D8
:104F2000B09195030196A11DB11D809392039093BA
:104F30009303A0939403B0939503BF91AF919F9176
:104F40008F911F901FBE1F9018951F921FB61F9222
:104F500011248F939F93AF93BF93809191038111FD
:104F600013C08091920390919303A0919403B09108
:104F700095034196A11DB11D8093920390939303D5
:104F8000A0939403B0939503BF91AF919F918F919C
:104F90001F901FBE1F901895CDB7DEB7EA970FB6CA
:104FA000F894DEBF0FBECDBF84B7877F84BF0FB636
:104FB000F894A895809160008861809360001092B9
:104FC00060000FBE80E890E00FB6F8948093610017
:104FD000909361000FBE85B7806885BF85B78068F4
:104FE00085BF81E098E09093BF018093BE010E944D
:104FF00053130E9420040E94EB048091E20084601D
:105000008093E20078948091C0038823A1F01091EE
:10501000E9001F709091EC00892F817090FD80E86D
:10502000182B1092E9008091E80083FD0E940F1672
:105030001F701093E90082E084BD93E095BD9AEF64
:1050400097BD80936E000E945614811102C00E9489
:10505000301305E611E0ACE6EA2EA1E0FA2ED80105
:105060008D918D018F3F11F00E940308E016F1062B
:10507000B1F70CE611E0F1E7EF2EF1E0FF2EF801B9
:1050800081918F018F3F11F00E940308E016F10615
:10509000B1F7E4E3F2E08BE392E0A4E6B2E0119230
:1050A0001D928E179F07D9F70E945B26811102C0BF
:1050B0000E94E11882E090E00E947D3180935A02C4
:1050C0000E946F1490939703809396030E94432548
:1050D000FFEF26E741E0F15020404040E1F700C0FB
:1050E00000000E9443258091640280FF08C06FEF9A
:1050F0007FEF90E080E00E94AF310E94610D83E07D
:1051000090E00E947D310E94050C80913B0281114C
:1051100033C00E945B26811104C00E94E1180E94E6
:10512000EB1588E090E00E9485316093BC0270939B
:10513000BD028093BE029093BF026E7F71F40E9405
:10514000EB1588E090E00E9485316093BC0270937B
:10515000BD028093BE029093BF020E94140610927B
:105160007F028091BC0280FF04C060E086950E94AF
:10517000881581E080933B0269E871E044E452E0E5
:10518000E1E88E2EE1E09E2EE5E8F1E021E030E05E
:105190001191812F82958F7090E0DC019196FC90A7
:1051A00091971F70E12E690101C0CC0C1A95EAF7A6
:1051B0000C2D00950F2191960C93919792961C912E
:1051C00092971C2992961C93D401FD904D010F2DAE
:1051D00002950F7010E0D8019196BC90BF2DBF7062
:1051E000FB2E690101C0CC0CBA95EAF7DC2CD094F7
:1051F000DB20D8019196DC9291979296DC90929761
:10520000DC289296DC92DC0190968C9190E002C0B2
:1052100095958795EA94E2F78170D80190960C9164
:1052200010E002C015950795FA94E2F790E000FDB2
:1052300092E0892BDA018D93AD016E177F0709F09B
:10524000A7CF539A229A529A23982B985B9A2A9A1C
:105250005A9A2B9A5A98BAE0BA95F1F700C08AEB9D
:105260000E94E311E5E3EA95F1F700008AE50E9468
:10527000E311FAE0FA95F1F700C02A9A5A9A2FE75B
:105280004FEA82E0215040408040E1F700C000003A
:105290000E941F1281E191E090938E0380938D0311
:1052A0007BE6472E72E0572E8091C00300E112E1A9
:1052B000853009F4C3C20E944325882359F08FB773
:1052C000F8944091920350919303609194037091EC
:1052D00095038FBFEBE5F2E0A4E6B2E010E000E05A
:1052E000302F8D919191981709F4B7C2292F282753
:1052F00090E0FF24F394422F4F2109F4A9C299AB07
:105300003AAB8F2191E009F490E09BAB0E94BC0581
:105310008160782F9DAB8CAB49A95AA96BA98DA947
:105320000E949D22F801E55AFD4F8081F826F08207
:1053300080917F028823D1F180917E02E091BC02AE
:10534000E695E81BE0937A02823009F09DC2F0E016
:10535000E857FD4FE4910E2F10E06CEDE62E6FE064
:10536000F62E80917B02882361F010927B020E94CE
:10537000BC05909379028093780210927D0210927E
:105380007C020E94BC05E0917802F09179028E1BAC
:105390009F0B8F3F9F4750F4E00FF11FF09379026E
:1053A000E093780288E792E0F701099550E4E52E52
:1053B00052E0F52E0CE312E061E8A62E61E0B62E75
:1053C00075E8872E71E0972EE4E4CE2EE2E0DE2E23
:1053D000312C212CF4E06F2E712CD601ED916D0152
:1053E000EE0FEE0FD4012D914D01A22FA295AF70BB
:1053F000B0E090968C9190E02F7002C095958795C3
:105400002A95E2F781709927D5014D915D01A42F6E
:10541000A295AF70B0E090962C9130E04F7002C032
:10542000359527954A95E2F7A9014170552720FF48
:1054300002C042E050E0842BE82BD6011197EC9398
:10544000EF70F0E0EF58FE4F8081F7019081890FF7
:10545000808320E084304CF0D8018C918F5F8C9356
:1054600060E0832D0E94B92421E0F70180818D3F07
:105470004CF4D8018C9181508C9361E0832D0E9473
:10548000B92421E0F7018081082E000C990BB301AB
:105490000E94C330D7018D937D01222A33940F5F80
:1054A0001F4FB4E03B1299CF222059F08FB7F894E8
:1054B00040919203509193036091940370919503EE
:1054C0008FBF86E0E2E7F2E08E010F5F1F4FD80149
:1054D00001900D928A95E1F7D0907402C090750208
:1054E000F0907602E09077021092740210927502AA
:1054F00010927602109277028D2D8C2909F448C003
:1055000080917002909171020E94AD059C01909172
:105510006C02992309F410C623333105C8F19F3F6B
:1055200019F09F5F90936C02DD2059F00E9479077B
:105530009FEF1D140CF491E0899F802D112480931E
:105540007402CC2059F00E9479079FEF1C140CF4D0
:1055500091E0899F802D112480937502309174020F
:105560003323B1F020917502222391F045EB3403EF
:10557000C0011124992309F4E1C19093740245EB11
:10558000240390011124332309F4DCC13093750204
:105590008F2D8E2909F448C080916E0290916F0280
:1055A0000E94AD059C0190916B02992309F4BFC53F
:1055B00025363105C8F19F3F19F09F5F90936B022C
:1055C000FF2059F00E9457079FEF1F140CF491E041
:1055D000899F802D112480937602EE2059F00E943D
:1055E00057079FEF1E140CF491E0899F802D112422
:1055F00080937702309176023323B1F020917702C5
:10560000222391F045EB3403C0011124992309F4BE
:105610009DC19093760245EB24039001112433231E
:1056200009F498C1309377028091740290917502C9
:10563000892B90917602892B90917702892B11F01A
:105640000E94B90686E0F801A2E7B2E001900D924F
:105650008A95E1F786E0EEE4F2E0DE019B960190A8
:105660000D928A95E1F786E0FE01BB96D801019084
:105670000D928A95E1F786E0F801DE01919601909E
:105680000D928A95E1F78B80EC80AD80BE800E9400
:105690001F12982EF92E811161C1911169C180915B
:1056A0005802882309F457C0C82C880CDD08609183
:1056B0005602709157026C0D7D1D6A3071050CF415
:1056C000A2C1072E000C880B990B0E94723220E0B9
:1056D00030E040E251E40E94CD310E943A327093B2
:1056E000570260935602BB24B3940E2C000CFF08A3
:1056F00060915402709155026E0D7F1D64317105E9
:105700000CF49FC1072E000C880B990B0E9472327B
:1057100020E030E040EA51E40E94CD310E943A326C
:105720007093550260935402AA24AA94F7FE03C012
:10573000F194E194F108D7FE03C0D194C194D1084B
:10574000EC14FD040CF49BC1109257021092560207
:10575000B12CE12C812C8BA2ECA2ADA2BEA286E0E2
:10576000FE01B196D80101900D928A95E1F786E08D
:10577000F801AEE4B2E001900D928A95E1F7309124
:1057800050022091510290915202809153027091E7
:105790004A0260914B0240914C0250914D02F091AF
:1057A0004902E0914F02FE1370C1332311F0371309
:1057B0006CC1222311F0621368C1882311F05813C1
:1057C00064C1992319F081E0491360C180E05EC192
:1057D0008091C003843021F110929103A8E1B0E0E0
:1057E000E0E40FB6F894A895A09360000FBEE09394
:1057F000600083B7817F846083BF83B7816083BF8C
:105800007894889583B78E7F83BF0FB6F894A89558
:1058100080916000886180936000109260000FBEEC
:105820008091BF03882351F00E944325E4E6F2E013
:10583000819181115DC44E165F06D1F78091C0033E
:10584000853009F4C5CF0E94FA150E94020633CDB7
:105850009F5FFF0C953009F04ECD0F5F1F4F073053
:10586000110509F03DCD8FEF8EAB8FAB18AE0E94C6
:10587000BC058160782F9AAF89AF4EA95FA968AD4A
:105880008AAD0E949D2254CD863059F4F0E0EB574A
:10589000FD4FE4910E2F10E05CECE52E5FE0F52E5D
:1058A00060CD893061F4E695F0E0EE57FD4FE4916C
:1058B0000E2F10E048E3E42E4FE0F42E52CD8F304F
:1058C00061F4E695F0E0E158FD4FE4910E2F10E011
:1058D0003AECE32E3EE0F32E44CD853159F4F0E06E
:1058E000E458FD4FE4910E2F10E02CE7E22E2EE05D
:1058F000F22E37CD08E210E0B3EFEB2EBDE0FB2E29
:10590000883109F42ECD833249F4EAE7F2E00591BB
:10591000149193E7E92E9FE0F92E23CD00ED17E0D7
:10592000A3E1EA2EA6E0FA2E843209F01ACD04EFA4
:1059300011E08AEBE82E8DE0F82E13CD81E0809304
:1059400074021DCE81E08093750222CE81E08093A7
:10595000760261CE81E08093770266CE082E000C3D
:10596000990B97FF03C091958195910902975CF47B
:105970008F2D0F2C000C990B97FF03C091958195EB
:10598000910902974CF1692D990C770B880B990BB3
:105990000E94723220E030E040E450EC0E94FE327F
:1059A0003B014C016F2DFF0C770B880B990B0E946C
:1059B000723220E030E040E450E40E94FE326B019D
:1059C0007C01C401B3010E943A32862EC701B601A0
:1059D0000E943A32E62E63CE6F2DFF0C770B880BB8
:1059E000990B0E9472326B017C01692D990C770B27
:1059F000880B990B0E9472323B014C0197FA9094EC
:105A000097F89094DECF673F8FEF78072CF0709374
:105A100057026093560269CE072E000C880B990B33
:105A20000E94723220E030E040E251E40E94CE3128
:105A30000E943A327093570260935602BB24BA9484
:105A400054CE6D3E9FEF79072CF070935502609312
:105A500054026CCE072E000C880B990B0E947232F8
:105A600020E030E040EA51E40E94CE310E943A3218
:105A70007093550260935402AA24A39457CE1092B7
:105A8000550210925402A12C64CE81E080FF04C024
:105A90008EE492E00E94F40510925002109251029E
:105AA000109252021092530286E0EEE4F2E0A8E473
:105AB000B2E001900D928A95E1F70E940206909162
:105AC0005902891721F00E940206809359028091A1
:105AD000C003843009F0E8CB83E08093E900809133
